:020000040002F8
:10600000B05B0020DD630200E5630200E76302008D
:10601000E9630200EB630200ED6302000000000090
:10602000000000000000000000000000EF6302001C
:10603000F163020000000000F3630200F563020058
:1060400019680200F7630200E56B0200F7630200C3
:10605000F7630200F76302008D650200F763020038
:10606000F7630200F7630200F7630200F7630200C0
:10607000F7630200F7630200F7630200F7630200B0
:10608000F56B02006D680200F7630200F76302001F
:106090002D690200F763020035690200F763020010
:1060A000F7630200F7630200F7630200F763020080
:1060B000F7630200F7630200000000000000000028
:1060C000F7630200F7630200F7630200F763020060
:1060D000F7630200F7630200F763020000000000AC
:1060E00000000000000000000000000000000000B0
:1060F00000000000000000000000000000000000A0
:10610000000000000000000000000000000000008F
:10611000000000000000000000000000000000007F
:10612000000000000000000000000000000000006F
:10613000000000000000000000000000000000005F
:10614000000000000000000000000000000000004F
:10615000000000000000000000000000000000003F
:10616000000000000000000000000000000000002F
:10617000000000000000000000000000000000001F
:10618000000000000000000000000000000000000F
:1061900000000000000000000000000000000000FF
:1061A00000000000000000000000000000000000EF
:1061B00000000000000000000000000000000000DF
:1061C00000000000000000000000000000000000CF
:1061D00000000000000000000000000000000000BF
:1061E00000000000000000000000000000000000AF
:1061F000000000000000000000000000000000009F
:10620000DFF80CD000F084F9004800473596020012
:10621000B05B002000B583B002900091019244F27F
:10622000010071466A4600F0B7FE03B000BD0000F1
:1062300030B450E8012F93B2C48923448489A34227
:1062400028BF1B1B0489A34202BFBFF32F8F00206E
:1062500007E0C3EA020340E80134002CE9D14FF023
:1062600001000A6030BC704750E8012FC2EA0242C8
:1062700040E801210029F7D1704730B450E8022FDF
:106280001FFAA2F3C488A34202BFBFF32F8F0020DE
:106290000DE0C48923448489A34228BF1B1BC2EAA2
:1062A000034340E80234002CE8D14FF001000A60BB
:1062B00030BC704750E8022FC2EA224240E8022177
:1062C0000029F7D17047034653E8022FD988B2EB73
:1062D000324F4FF0000017BF92B241EA014142EA4B
:1062E000014104E05A68B2EB324F08BF012043E895
:1062F0000212002AE8D1704730B4044654E8000F77
:106300000D4644E80053002BF8D1156030BC7047AF
:1063100030B4044654E8000F40EA010544E8005355
:10632000002BF7D1156030BC704730B4044654E8F8
:10633000000F00EA010544E80053002BF7D1156077
:1063400030BC704730B4044654E8000F80EA0105C1
:1063500044E80053002BF7D1156030BC704730B4CF
:10636000044654E8000F00EB010544E80053002BFD
:10637000F7D1156030BC704730B4044654E8000FC4
:10638000A0EB010544E80053002BF7D1156030BCA9
:10639000704770B404464FF0000054E8006F0D6879
:1063A000AE4207BF44E80023012044E800630E60CA
:1063B000002B1CBF0020F0E770BC704730B40446CF
:1063C00054E8000F88422CBF451A054644E80053A4
:1063D000002BF5D1156030BC70470000064880479F
:1063E00006480047FEE7FEE7FEE7FEE7FEE7FEE7BA
:1063F000FEE7FEE7FEE7FEE74D69020001620200EC
:106400002DE9F05F0546002092469B4688460646E9
:10641000814640241BE0284641464746224600F07C
:1064200067F853465A46C01A914110D31146184690
:10643000224600F016F82D1A67EB01084F46224657
:106440000120002100F00DF817EB00094E41201E3D
:10645000A4F10104DFDC484631462A464346BDE844
:10646000F09F202A04DB203A00FA02F10020704756
:106470009140C2F1200320FA03F319439040704782
:1064800000487047D0DA020040EA01039B0703D0BE
:1064900009E008C9121F08C0042AFAD203E011F863
:1064A000013B00F8013B521EF9D27047D2B201E025
:1064B00000F8012B491EFBD270470022F6E710B509
:1064C00013460A4604461946FFF7F0FF204610BD62
:1064D000421C10F8011B0029FBD1801A70470346AB
:1064E00011F8012B00F8012B002AF9D1184670474A
:1064F000202A04DB203A21FA02F00021704721FA19
:1065000002F3D040C2F1200291400843194670477F
:10651000064C074D06E0E06840F0010394E80700F0
:1065200098471034AC42F6D3FFF76EFE48E2020003
:1065300068E2020070B58C1810F8015B15F00703D3
:1065400001D110F8013B2A1106D110F8012B03E00C
:1065500010F8016B01F8016B5B1EF9D12B0705D414
:106560000023521E0DD401F8013BFAE710F8013B5D
:10657000CB1A921C03E013F8015B01F8015B521E79
:10658000F9D5A142D8D3002070BD00002DE9F04F0D
:1065900089B00027002008904FF4807007900126F2
:1065A000002412E0079803F0D3FF40B100BF7B48FE
:1065B0000068304018B1079803F0BCFF37437600FD
:1065C0000798001D80B20790641C082CEAD34FF492
:1065D000BE7003F0BDFF50B14FF4BE7003F0AAFFD0
:1065E00047F0004708AA0121002003F089FFF8B214
:1065F00000B3012600241BE006EA0700B0B100BF8B
:10660000674850F82400C0F30420804600BF644867
:1066100050F82400C0F301408146204602F050F8B3
:10662000054615B149464046A84700BF7600641CA0
:10663000082CE1D307F0004000287DD00020069010
:106640000590002505E04FF0FF3004A941F8250032
:106650006D1C002DF7D000BF0020069000245FE0E5
:106660005048005D0390039820F0C0094D48005742
:10667000401C002853D004A9484603F0BDFB002865
:106680004DD003984FEA901A484602F021F8804610
:1066900002F016F80290029810B9BAF1030F3DD13A
:1066A000BAF1030F03D105A9484603F0B0FB00BFC0
:1066B00000BF4FF0A041084600F5E06151F82910F5
:1066C000C1F3014800BF08A9484603F095FB834683
:1066D000BBF1000F02D0B8F1020F05D0BBF1000FE3
:1066E0001BD1B8F1030F18D1BAF1030F0FD1B8F1D4
:1066F000020F01D1032000E00220019048460199D9
:1067000003F0C8FE0698401CC0B2069000BF029875
:1067100018B151464846029A904700BF00BF641C1A
:10672000042C9DD3069888B34FF0010803AA0121D9
:10673000002003F0E5FE00E02DE000250BE003A8BB
:1067400050F8250008A951F82510884202D04FF0D2
:10675000000802E06D1C002DF1D000BFB8F1000F61
:1067600002D00020069010E000250CE003A850F8AD
:10677000250008A941F8250005A850F8250004A91E
:1067800041F825006D1C002DF0D000BF06980028B0
:106790007FF462AF00BF09B0BDE8F08F0463004032
:1067A00010650040A031002000F01F02012191403F
:1067B000024A430942F823107047000080E200E0DB
:1067C00000F01F02012191404209920002F1E022F3
:1067D000C2F800117047000000F01F020121914033
:1067E000024A430942F823107047000000E200E02B
:1067F00010B5002807DA4A07140E054A00F00F0307
:106800001B1FD45403E04A07130E024A135410BD51
:1068100018ED00E000E400E010B54FF4807003F0E4
:1068200012FC80B14FF4807003F016FC012003F0DD
:106830001DFC0D48407930B901200B4948710846CC
:106840000168002088474FF4827003F0FCFB50B1D0
:106850004FF4827003F000FC022003F007FC0248B2
:1068600001680120884710BD002B002010B50020D2
:106870000949086000210948C0F84411C0F84811CE
:10688000C0F84C1100200549C1F8000102493C390B
:10689000086006F0D5FB10BD40110140001001401A
:1068A00010B500F0C7F910BD2DE9F047074688463E
:1068B0001646C24607EB47011B4800EBC109D9F851
:1068C000140020B1012811D0022826D11EE048462C
:1068D00000F0E8F90546B54201D2002405E034464F
:1068E00032465146484600F024FA18E0484600F087
:1068F000D9F90546B54201D2284600E030460446A3
:1069000022465146484600F014FA08E03246514605
:10691000484600F0D5F9044601E0002400BF00BF5E
:106920002046BDE8F08700003C39002010B506F095
:1069300091FA10BD10B504F01BFD10BD01480249CD
:10694000086070470090D003D42B002010B502F0EF
:1069500075F928B192480088C0F304209149086075
:1069600002F0C0F910B190489049486702F0E2F98E
:1069700030B18B48E0380068C0F342308C49086081
:1069800002F002FA28B18B48006820F08070894933
:10699000086002F011FA48B10020874908604FF002
:1069A0008041C1F810018249091F086002F02EFAE7
:1069B00018B103207E496431086002F03FFA68B1E3
:1069C00005207E49086001207C497831086000205C
:1069D0007A49083108603F20091F086002F046FA32
:1069E000002855D06E48E0300068754908606C4852
:1069F000E4300068091D08606948E8300068091D36
:106A000008606748EC300068091D08606448F03091
:106A10000068091D08606248F4300068091D0860BC
:106A20005F48F83000686649203108605C48FC30F7
:106A30000068091D086063480068091D0860614816
:106A4000001D0068091D08605E4808300068091DC7
:106A500008605C480C300068091D08605948103017
:106A60000068574940310860564814300068091DD5
:106A70000860544818300068091D086051481C30EF
:106A80000068091D08604F4820300068091D086033
:106A900002F0AAF830B14248CC38006800F04F004C
:106AA0004949086002F0F4F840B14848006800F035
:106AB000010018B16FF001004449086002F02AF9A2
:106AC00028B14348006840F4806041490860394873
:106AD0007438006840F4700036497439086000BFAB
:106AE00000BF00BFBFF34F8F00BF00BF00BF00BF9C
:106AF00000BF00BFBFF36F8F00BF00BF00BF3548AE
:106B0000006800F0004028B93248001D006800F01D
:106B10000040E8B301203049086000BF2F480068FA
:106B20000028FBD015202B49086000BF2B480068C7
:106B30000028FBD015212748001D016000BF274811
:106B400000680028FBD000202349086000BF2348CC
:106B500000680028FBD000BF00BF00BF00BF00BF1F
:106B6000BFF34F8F00BF00BF00BF1248F03800686E
:106B700000F4E0601A490843001D0E49F03908602E
:106B800000BF00BF00BFBFF34F8F00BF00BF00E0DA
:106B900003E000BF00BF00BFFDE7FFF7CFFE10BD61
:106BA00024030010403501400DF0ADBA00C007408D
:106BB0003C050040FCED00E00C0100401056004098
:106BC00020C5004024040010E40E004000040040F2
:106BD0003C1700400012001004E5014000E40140B1
:106BE0000000FA0510B502490868804710BD000092
:106BF000082B002008B501200B490968014009B1A4
:106C0000012100E0002101290DD100BF002009026F
:106C1000064A8850084611464058009000BF00BF01
:106C200003480068804708BD04030140000001409C
:106C3000102B002010B5124C02202061606111A0C1
:106C4000A0611349E1614FF4007121620021A1624A
:106C50006162E1620BA0A0640E49E164102121652C
:106C60000021A1656165E1650BA1E01DFFF737FC1F
:106C70000AA12046FFF733FC2020A07110BD0000C0
:106C8000243900205465726D696E616C000000004B
:106C90009C3900209C3B00205254540053454747E8
:106CA0004552000010B501460A69CB689A4204D8E3
:106CB0008C68641EE41AA01801E0D41A601E10BD8E
:106CC0002DE9F0470446894617464FF0000AE5686B
:106CD00000BFD4F81080A84503D9A8EB0500461ED4
:106CE00004E0A5EB0800401CA1680E1AA068401B38
:106CF000B04201D9304601E0A068401B0646BE42C2
:106D000001D2304600E038460646616848193246EE
:106D10004946FFF7B9FBB244B144BF1B3544A068F4
:106D2000A84200D10025E560002FD2D15046BDE831
:106D3000F0872DE9F047044689461546E668A068C5
:106D4000871BAF4208D9616888192A464946FFF770
:106D50009BFB7019E06010E0B846616888194246F4
:106D60004946FFF791FBA5EB070809EB07014246EF
:106D70006068FFF789FBC4F80C80BDE8F08702E08B
:106D800008C8121F08C1002AFAD1704770470020B6
:106D900001E001C1121F002AFBD1704701462029E2
:106DA00008DA012088400A4A104008B101207047E3
:106DB0000020FCE7402909DAA1F12000012202FAB3
:106DC00000F008B10120F2E70020F0E70120EEE733
:106DD000FC06FFBD00BFEFF31081084672B6704796
:106DE0000146082901D30020704719B1012901D0BB
:106DF000042901D10020F7E70120F5E70246002130
:106E000004E0505C08B101207047491C0629F8D302
:106E10000020F9E770B504460D4604F1AB00FFF71A
:106E2000EDFF0646012D06D0022D0DD0032D11D009
:106E3000042D19D113E0A07928B194F8240010B9D9
:106E40000EB1012070BD00BFE07910B10EB102207B
:106E5000F8E700BF207A08B10320F3E700BF607AAB
:106E600008B10420EEE700BF0020EBE70146481C14
:106E7000052290FBF2F302FB1300C0B2704710B57D
:106E800001220221002001F081F9044600BF1CB15B
:106E9000072C01D0204610BD00BF0722022101208F
:106EA00001F074F9044600BF1CB1072C01D0204644
:106EB000F1E700BF0A220021084601F067F9044605
:106EC00000BF1CB1072C01D02046E4E700BF002022
:106ED000E1E7000030B5ABB0AC216846FFF7EDFA52
:106EE00002208DF8000000208DF8020006208DF8A9
:106EF00003000121ADF84C101149149101218DF8C6
:106F00007C104FF448712291002123910D48299063
:106F100069460D4800F0CFFB044600BF25463DB151
:106F200000BF0AA240F282212846FFF773F900BF92
:106F300000BF0121044800F0BBFB2BB030BD0000B6
:106F4000C42A00202DBA02003C2C00202E2E5C2EDC
:106F50002E5C2E2E5C6D61696E2E630070B5032170
:106F6000084800F06AFC044600BF25463DB100BF5A
:106F700005A240F2C1212846FFF74CF900BF00BF2F
:106F800070BD00003C2C00202E2E5C2E2E5C2E2E80
:106F90005C6D61696E2E63002DE9FE4307460E4667
:106FA000144672B600BF03F02DFE00BF00BF03F011
:106FB000BDFB0028FBD100BF00BF012F0CD06FF438
:106FC0008050384488B1B0F5405F24D06FF4405110
:106FD000084400283BD111E02A490988012242EAED
:106FE000014029A103F022FD3BE026490988012246
:106FF00042EA01402CA103F019FD32E025462B881E
:10700000204909884FF0010C4CEA01402FA16A6821
:1070100003F022FD25E02546A86804F083FA8046A7
:10702000D5E900108DE8430016490988012343EA99
:10703000014043462CA1AA6803F01EFD11490988AE
:10704000012242EA014032A103F0F0FC09E00D49BF
:107050000988012242EA0140324632A103F0F0FCE5
:1070600000BF00BF00BF3548006800F0010000B15C
:1070700000BE00BF22463146384600F061F8BDE848
:10708000FE8300000C2C0020534F465444455649C3
:1070900043453A20415353455254494F4E204641AF
:1070A000494C454400000000534F4654444556495E
:1070B00043453A20494E56414C4944204D454D4F99
:1070C0005259204143434553530000004153534517
:1070D0005254494F4E204641494C4544206174204A
:1070E00025733A25750000004552524F52202575F0
:1070F000205B25735D2061742025733A25750D0A88
:1071000050432061743A20307825303878000000F0
:10711000456E64206F66206572726F7220726570B2
:107120006F727400554E4B4E4F574E204641554C92
:10713000542061742030782530385800F0ED00E09C
:1071400018B5012300939DF800301E4B186059605C
:107150009A606FF48043034463B1012B19D1194B3A
:10716000DA60DB681B88174CA3612346DB685B6829
:10717000E3610EE0134B1A611B699B68114C63615C
:1071800023461B691B68A36123461B695B68E36197
:1071900000BF00BF0B4B1B680A4B5B68094B9B6829
:1071A000084BDB68074B1B69064B5B69054B9B690A
:1071B000044BDB6972B600BF9DF80030002BFBD199
:1071C00062B618BDFC31002070B504460D4620465D
:1071D00001F0D0FE28B12946204601F0BFFE002074
:1071E00070BD0520FCE770B504460D46204601F051
:1071F000C1FEA188884205D82946204601F0C8FE74
:10720000002070BD0420FCE710B503460C4600BF0B
:107210000B48807808B9082010BD00BF0AB90720C4
:10722000FAE70BB90720F7E71868007C08B10820D7
:10723000F2E71968002008744C744A6100BFEBE75C
:107240001C32002010B505F02BF900200F49087002
:1072500048700B20887000200D4908600D490870A7
:107260000D4908701420FFF79FFA07211420FFF73B
:10727000BFFA1420FFF7A4FA002005F0E7F805F0A4
:10728000DFF806490860002010BD00001C32002015
:107290001C2B00202C2B00202D2B0020202B00202D
:1072A0002DE9F04104460E461746254600BF10481A
:1072B000807810B90820BDE8F08100BF0CB9082023
:1072C000F9E7052E01D20720F5E7686908B908201B
:1072D000F1E7687C012801D1304600E000208046BB
:1072E0003B4642463146284605F05AFEE3E7000099
:1072F0001C32002070B50446254600BF084880783F
:1073000008B9082070BD00BF0CB1686908B9082031
:10731000F8E7002028740221284605F070FEF1E706
:107320001C3200202DE9F041054629461448FFF79C
:107330005AFF064606BB134C002720781249085C0A
:1073400020B1201D04F062FA074608E020780E49BB
:10735000085C20B904F10C0004F0F2F9074600BF04
:1073600057B90A490648FFF72FFF28B901220749F4
:10737000044802F0BDFE06463046BDE8F08100003C
:1073800038330020302B0020FC2A0020482B00201E
:1073900010B50446204605F093F910BD70B50446BB
:1073A00025460E488068B0B1ADB9FFF713FD06461B
:1073B0000A4800680A490860084840684FF0E02120
:1073C000C1F804010020054988601EB900BF62B6FB
:1073D00000BF00BF00BF00BF70BD000048330020E9
:1073E00000E100E0F8B505460C4617462088001D70
:1073F000B84201D90C20F8BD684679DF064600BFC7
:10740000304600B1F7E700BF032021886854208888
:10741000401C20801920218868542088401C20802E
:1074200020884119BDF8000005F05EFF218808445E
:1074300020800020DFE70000002112E00B48D0F898
:107440001024012306E000BF107A884201D10023F6
:1074500002E05268002AF6D100BF0BB1084670471F
:10746000491C0A29EADB4FF0FF30F8E7003500201D
:107470002DE9F04104460F46154615B90E20BDE82A
:10748000F0810020286000BF0CB90E20F7E700BF94
:1074900000BF206808B90E20F1E700BF00BFE088F8
:1074A000C11700EB91718910A0EB810109B1072090
:1074B000E5E700BF384600F0D7FAC6B2142E01D176
:1074C0000520DCE72079B04201DC0420D7E7E18821
:1074D000206806FB010028600020D0E72DE9FC4170
:1074E000054688461646002437880020308095F8E7
:1074F0002D0058B13A463146404600F0CDFA0446D8
:1075000000BF204608B1BDE8FC8100BFA87850B19B
:107510003A4631464046FFF765FF044600BF204625
:1075200000B1F0E700BFE87860B1E97848B23B46C7
:107530003246414601F035FD044600BF204600B109
:10754000E1E700BF686868B1696891F900003B46EF
:107550003246414605F0A7FE044600BF204600B172
:10756000D1E700BF288900280EDD4346062202210C
:1075700005F10800CDE9006705F0AEFF044600BF45
:10758000204600B1BFE700BF288A00280EDD434631
:107590000722032105F11000CDE9006705F09CFFEB
:1075A000044600BF204600B1ADE700BF288B00288D
:1075B0000EDD43461522142105F11800CDE90067C0
:1075C00005F08AFF044600BF204600B19BE700BFDC
:1075D000286A58B13B4632464146286A01F051F9C3
:1075E000044600BF204600B18DE700BF686A58B16D
:1075F0003B4632464146686A02F09EF9044600BFA7
:10760000204600B17FE700BF95F82C0000280BDD75
:107610003B4632464146284605F052F9044600BF33
:10762000204600B16FE700BF287858B13B4632468C
:107630004146284602F02EFA044600BF204600B11B
:1076400061E700BF20465EE7F8B504460E461546E2
:10765000002000902B466A463146204600F008F88C
:1076600007460FB90020F8BDBDF800002044FAE736
:1076700030B504460D4604B10AB9002030BD0021E2
:1076800003E0605C401C084481B21088884203DC3F
:10769000481C205C984201D0A942F2DBA94201DBE0
:1076A0000020EBE7881C1080605C401E80B2E5E79C
:1076B00080F83010704770B504460D4605B10CB91E
:1076C0000E2070BD05F1780001F07CF808B90720A4
:1076D000F7E70020A0702C2205F17801201DFEF7AD
:1076E000D3FE002084F83000D5F8A4006063D5F8FC
:1076F000A800A0634FF6FF70A4F8A80004F194005E
:10770000C4F8A4000021B020C4F8AA10A4F8AE1058
:107710000155207810B9FF2084F8540004F1550079
:10772000C4F894001F219820015304F1980204F139
:1077300055012846FFF7D2FE064600BF304600B18D
:10774000BFE700BF05F13C00A0B104F174009C212B
:1077500008511F21A4F8A0109C20015904F1A00297
:1077600005F13C00FFF7BAFE064600BF304600B107
:10777000A7E704E000219C200151A4F8A0100121FA
:1077800051200155208B81B248200153012084F8FB
:107790003C0000212164502001556169616404F1BD
:1077A0003C02002104F1540072DF064600BF30465F
:1077B00000B186E700BF01202070304681E770B538
:1077C00004460D462E462088102804D0112807D0E4
:1077D00026280FD109E02146304604F0F5F90AE0E9
:1077E0002146304604F0B1FA05E02146304604F067
:1077F000FAFB00E000BF00BF70BD2DE9F041054677
:107800000E463446022D02D0032D12D100E000BFF7
:10781000607868B100206070A178204600F00DF813
:10782000074627B1A06B10B13846A16B884700BF4F
:1078300000E000BF00BFBDE8F08170B504460E4611
:10784000207808B9082070BDA67001F0DAFB18B1E5
:10785000012060700020F6E70021B020C4F8AA10D3
:10786000A4F8AE100155A07910B1A078012809D074
:10787000E07910B1A078012804D0E07970B1A07847
:1078800002280BD1606B30B1012084F8B1000820D0
:10789000616B884702E0002084F8B1003146204641
:1078A000FFF7B8FAA070606BA0B1A078032802D0EF
:1078B000A07804280ED1607960B194F8B20048B97C
:1078C000002084F8B400012084F8B3000720616B25
:1078D000884702E0002084F8B300182104F13C003E
:1078E000FEF7EBFD012084F83C0004F12C0004F0CD
:1078F00021FC20B194F82C105120015502E0012107
:107900005120015594F8240060B104F12C0004F0DA
:1079100011FC20B194F828105220015502E00121F9
:1079200052200155002150200155A078052824D26D
:10793000DFE800F01F030A11180004F13C012046A3
:1079400005F05EF8054619E004F13C01204605F01B
:107950003FF8054612E004F13C01204605F062F8CC
:1079600005460BE004F13C01204605F089F8054688
:1079700004E0002084F8310000E000BF00BFA078E0
:10798000E0B104F13C0204F15400D4F8A41072DF19
:1079900005460DB1284656E794F8301094F8540087
:1079A00073DF05460DB128464DE794F854100422C4
:1079B000012077DF05460DB1284644E7606B18B11A
:1079C00094F83100616B884700203CE72DE9F041D5
:1079D000044600BF14B90E20BDE8F08100BF1C2290
:1079E00021461C48FEF750FD1B481A4908602068D4
:1079F00060B120687ADF05460DB12846ECE71648ED
:107A000021680A6802604968416005E012487BDF2E
:107A100005460DB12846DFE7002617E006EB860095
:107A20000E4901EB800700BF4FF6FF70388000BFA2
:107A30000B4800EB461078600A4A0021381DFFF71A
:107A4000E3FB05460DB10320C6E7761C002EE5D00A
:107A50000020C1E7A8300020EC2A0020943000204C
:107A600074300020D1D3020010B50446204600F047
:107A700005F808B1204610BD1420FCE710B50446F7
:107A8000142C01DB002010BD2146024802F0C7F88B
:107A9000F9E70000C83000202DE9FC4105460C46FE
:107AA000174620880930B84202D90C20BDE8FC8175
:107AB00068466DDF064600BF304600B1F6E700BFFE
:107AC0000820218868542088401C20801B202188A1
:107AD00068542088401C208020882844DDF801104C
:107AE0000160BDF8051081802088801D20809DF8F0
:107AF0000000400818B900202188685402E00120E5
:107B0000218868542088401C20800020CEE7000097
:107B1000F8B505460F462888212849D006DC1028EC
:107B20000BD0112837D013287DD154E03B287CD0CE
:107B3000522864D05628F7D188E04E49098803229C
:107B400042EA01404CA102F071FF072000F04CFB1B
:107B5000044600BF26463EB100BF4AA24FF4C171A1
:107B60003046FEF757FB00BF00BFA8884949088090
:107B700008460188484802F0FFF9044600BF26463F
:107B80003EB100BF3FA240F285113046FEF742FBF6
:107B900000BF00BF6CE037490988032242EA014078
:107BA0003EA102F043FF4FF6FF703A4908805FE0C4
:107BB00000200090A88869468FDF044600BF264653
:107BC0003EB100BF2FA240F297113046FEF722FBD4
:107BD00000BF00BF4CE000231A4685212D480088D5
:107BE0007FDF044600BF26463EB100BF25A240F21B
:107BF0009D113046FEF70EFB00BF00BF38E00023AA
:107C00001A46194623480088B1DF044600BF2646BD
:107C10003EB100BF1BA240F2A3113046FEF7FAFAB4
:107C200000BF00BF24E022E0FFE7A888132176DF31
:107C3000044600BF26463EB100BF12A24FF4D571E4
:107C40003046FEF7E7FA00BF00BF11E0A888132115
:107C500076DF044600BF26463EB100BF09A240F2CF
:107C6000B1113046FEF7D6FA00BF00BF00E000BFFA
:107C700000BFF8BD0C2C0020436F6E6E6563746509
:107C8000640000002E2E5C2E2E5C2E2E5C6D616931
:107C90006E2E6300C02A0020302C002044697363DC
:107CA0006F6E6E65637465640000000070B5054614
:107CB0000E462888102802D011282CD115E017482C
:107CC000006860B900F088FE044600BF34B1144873
:107CD000006818B1204612490968884700BF0F485C
:107CE0000068401C0D49086016E00C480068401E02
:107CF0000A4908600846006860B9FFF7C0F8044602
:107D000000BF34B10648006818B12046044909682C
:107D1000884700BF00E000BF00BF70BDE82A002018
:107D2000E42A002070B504460D462088102806D0AD
:107D3000112808D012280ED0502810D107E0204674
:107D400003F0D0FE0CE0204603F0E6FF08E02046FA
:107D500004F07AF904E0204603F0ACFE00E000BF36
:107D600000BF70BD2DE9F04104468846A5882088F3
:107D7000102804D0112817D01A2849D118E004F08F
:107D800027FB284604F000FB30B900BF22A2E32104
:107D90000420FEF73FFA06E0E07B012803D02946E5
:107DA0002C4801F04BFF33E0284604F035FB2FE070
:107DB000207A0121B1EB101F01DA012000E0002040
:107DC0000646207A0221B1EB101F01DA012000E003
:107DD000002007468EB129461E48001D01F02EFFE7
:107DE0002FB129461B48083001F028FF0FE0294633
:107DF0001848083001F004FF09E029461548001D25
:107E000001F0FEFE29461348083001F0F9FE00BFDC
:107E100000BFBDE8F08100002E2E5C2E2E5C2E2EC1
:107E20005C2E2E5C2E2E5C2E2E5C636F6D706F6E42
:107E3000656E74735C626C655C636F6D6D6F6E5CB8
:107E4000626C655F636F6E6E5F73746174652E63E1
:107E500000000000D030002070B586B005460E4608
:107E60001F4B0FCB01AC0FC400BF15B90E2006B0DD
:107E700070BD00BF00BF0EB90E20F8E700BF30682C
:107E8000A861294601A862DF044600BF204600B170
:107E9000EDE700BF28788DF816000120ADF814003A
:107EA000AA1C05A9A8DF044600BF204600B1DEE7F2
:107EB00000BF3146284604F01FFB044600BF2046A1
:107EC00000B1D4E700BF3146284605F052F9044618
:107ED00000BF204600B1CAE700BF0020C7E700008E
:107EE00090D7020070B504460D4605B104B970BDC7
:107EF0002E462088102804D0502807D057280FD1AC
:107F000009E02146304603F025FE0AE021463046CE
:107F100004F0C6F805E02146304603F0CBFF00E050
:107F200000BF00BF00BFE2E770B50446204605F081
:107F3000D5F9054605F0010070BD000038B503F025
:107F4000D3F9044600BF25463DB100BF15A24FF44A
:107F5000E2712846FEF75EF900BF00BF00200090E6
:107F60006946012002F0D4FF044600BF25463DB11A
:107F700000BF0CA24FF4E5712846FEF74BF900BF95
:107F800000BF684603F084F8044600BF25463DB1B3
:107F900000BF04A24FF4E7712846FEF73BF900BF8B
:107FA00000BF38BD2E2E5C2E2E5C2E2E5C6D6169BE
:107FB0006E2E630001460148405C704748D70200BE
:107FC00010B502460949885C00BF4FF0A044214625
:107FD000D1F80435012484409C43C1F808450124AC
:107FE00084401C40C1F80C4500BF10BD44D70200BE
:107FF00010B504460249085D012102F064FA10BD83
:1080000044D7020010B504460249085D002102F081
:108010005AFA10BD44D7020010B50146094B585C0E
:1080200000BF4FF0A044234600BFD3F80445C4402E
:1080300004F001040CB1012000E00020024682F0AF
:10804000010010BD44D7020010B5002403E0204613
:10805000FFF7CEFF641C042CF9D310BD10B500242B
:1080600003E02046FFF7CEFF641C042CF9D310BDBB
:1080700002464FF0FF30002106E0054B5B5C934267
:1080800001D1084602E0491C0429F6D300BF70471D
:1080900048D7020010B5002000F074FA044600BF73
:1080A0001CB1062C01D0204610BD00BF012000F0FD
:1080B00069FA044600BF1CB1062C01D02046F3E744
:1080C00000BF0020F0E700002DE9F04106460F4612
:1080D0004FF0000800243046FFF7CAFF0446042C86
:1080E0003ED20FB3012F02D0022F38D130E004EB83
:1080F0004400214911F8008004EB44000844407812
:1081000050B11E4A4FF400411D480068FFF7C8F8FF
:1081100005460DB91948067004EB44001649084499
:108120008078184908551AE015480068FFF7E2F80A
:108130001448005D04EB44010F4A114489788842D9
:1081400005D104EB44001146084490F8028006E093
:1081500004EB44000849084490F8018000BF00BFC8
:10816000B8F1000F06D00848006818B1404606492B
:1081700009688847BDE8F08148300020DC2A0020EB
:1081800054D70200DD2A0020D82A002030B503464B
:108190000020042B23D2012A07D1012903D103F1A6
:1081A0000E04E4B200E00024224679B1012902D095
:1081B000022911D104E003EB43040A4D2A550DE0D6
:1081C00003EB4304074D2C44627007E003EB4304C8
:1081D000044D2C44A27001E0072000BF00E00720FE
:1081E00030BD00004830002070B504460025054829
:1081F000007800F0010018B1204600F005F80546AF
:10820000284670BDD02A00202DE9F04704460026FC
:108210000025D748007820B10020D549087001F02A
:10822000BFF8182C79D2DFE804F00C11124579ADB3
:10823000F1FFEEEDECEBEAE9E8E7E6E5E4E3E2E1A5
:10824000E0DF01F0ADF8CB4804708DE100BF002005
:10825000FFF7E2FE58B10020FFF7CAFE022C02D160
:108260004FF4E16001E04FF47A60054609E0002038
:10827000FFF7C8FE022C01D1C82001E04FF4C870FE
:108280000546BC4804704FF40040A5FB00204FF4A5
:10829000FA73D71840F100015A0000233846FEF760
:1082A000AFF8814600224946B3480068FEF7F8FF60
:1082B000064659E10020FFF7AFFE58B10020FFF756
:1082C00097FE032C02D14FF4487001E04FF47A601E
:1082D000054609E00020FFF795FE032C01D1C820D8
:1082E00001E04FF4C8700546A24804704FF4004006
:1082F000A5FB00204FF4FA73D71840F100015A0093
:1083000000233846FEF77CF88146002249469A4809
:108310000068FEF7C5FF064626E124E10020FFF7CE
:108320007BFE58B10020FFF763FE042C02D14FF40E
:108330007A6001E04FF47A6005460AE00020FFF71A
:1083400061FE042C02D14FF4C87001E04FF4C870F4
:108350000546884804704FF40040A5FB00104FF418
:10836000FA73CF1840F100015A0000233846FEF797
:1083700047F88146002249467F480068FEF790FF93
:108380000646F1E00020FFF747FE50B10020FFF75E
:108390002FFE052C01D1C82001E04FF47A6005467C
:1083A00009E00020FFF72EFE052C01D1C82001E0D6
:1083B0004FF4C87005466F4804704FF40040A5FBA9
:1083C00000204FF4FA73D71840F100015A0000233F
:1083D0003846FEF715F8814600224946664800688F
:1083E000FEF75EFF0646BFE0B8E0B6E0AAE0A1E017
:1083F00098E092E05FE05DE05BE059E057E051E03B
:1084000042E033E024E015E00EE0FFE70020FFF754
:10841000D7FD58480470002240F6CD415648006808
:10842000FEF73EFF06469FE00020FFF7EBFD5148B8
:10843000047099E001204E490870FFF7C1FD002249
:1084400040F6CD414C480068FEF72AFF06468BE017
:10845000012047490870FFF7B3FD00224FF4804127
:1084600045480068FEF71CFF06467DE001204049B4
:108470000870FFF7A5FD002240F6CD413E48006898
:10848000FEF70EFF06466FE0012039490870FFF73E
:1084900097FD00224FF4804137480068FEF700FF47
:1084A000064661E0FFF7DAFD324804705CE000BF89
:1084B00000BF00BF00BF31480068FEF71BFF064643
:1084C000C4F1110515B30EBB012D18D9A8B2C821EE
:1084D00048434FF4004180FB01304FF4FA729F187B
:1084E00040F10001520000233846FDF789FF814624
:1084F0000022494621480068FEF7D2FE06460220C7
:10850000FFF780FD01201E49087005E00220FFF7FB
:108510006FFD00201A49087026E000F041FF154861
:10852000047021E000F03CFF0020FFF76BFD1148D4
:10853000047019E000F034FF0120FFF763FD0D48DF
:10854000047011E000F02CFF0020FFF75BFD01201C
:10855000FFF758FD0748047006E000BFFFF77EFDF7
:108560000448047000E000BF00BF3046BDE8F0875B
:10857000CD2A0020CC2A00204CD7020050D7020080
:10858000D42A002010B504460121204605F036F813
:1085900010BD00002DE9FC4704460D461646A71CF9
:1085A0004FF001080020019001A8FEF7F1FE3048CD
:1085B000006828602E4800682D494968411A2C48F7
:1085C0008068401CA0EB010915E00121294801F059
:1085D00059FB00F0CBFF82465146264801F052FB82
:1085E0002348006822494968411A21488068401C94
:1085F000A0EB010900BF4F45E7D8B8F1000F30D01C
:108600000021009176B1009921F00301491C0091ED
:10861000009921F00401091D0091009964F389116A
:1086200000910DE0009921F00301891C009100994F
:1086300021F00401091D0091009964F39F510091FC
:108640000B4909680A4A92681140094A0C3202EB48
:108650008100009901600649096839440C3A1160AB
:1086600000BF9DF80400FEF799FE4046BDE8FC8778
:10867000003500201C39002070B504460D46A16865
:10868000481CA06020684554D4E90110884202D3F8
:10869000204601F064FD70BD044840680349096844
:1086A000884201D1012070470020FCE700350020FE
:1086B000022901D1012200E000220270704700006F
:1086C0000146024850F82100704700005031002058
:1086D00001460148405670478031002070B505467C
:1086E0000DB9094C01E0084C083409E0204600F0BF
:1086F00050FE064606B904E028467168884700BF68
:10870000F4E700BF70BD00004431002010B50446FE
:108710002CB90120064948700020FFF7DFFF012C2B
:1087200004D1012002498870FFF7D8FF10BD000076
:108730003C3100202DE9F04782461F4800680028A0
:1087400036D01D480068056803F07AFE07461B48CE
:1087500004682146384604F071FBC61C18480078AE
:1087600008B903F07FFEAE4201D2284600E0304651
:10877000044424F07F44204603F05CFE03F060FED6
:1087800080463946404604F059FB00F1030939465A
:10879000204604F053FB814509D903F051FE814680
:1087A00003F048FE2F2002F023FF04F095FC01E0C7
:1087B00003F076FEBDE8F0871C2B0020202B002064
:1087C0002E2B002001468878012805D191F8200041
:1087D000012801D100207047886A042802D0486A25
:1087E000042801D10020F6E70120F4E733B58BB06F
:1087F0000546002000900C9878B100240BE021463B
:108800000CA801F00CFA28B1009A501C009001A8A5
:1088100020F81240641C142CF1D32C2269462846FF
:10882000FDF732FE0DB030BD01460888062808DB92
:108830000888B0F5486F06DD08884FF6FF72904251
:1088400001D0072070474888062808DB4888B0F523
:10885000486F06DD48884FF6FF72904201D007202E
:10886000F0E708884FF6FF72904208D0488890429F
:1088700005D008884A88904201DD0720E2E7002001
:10888000E0E72DE9F04107460D461446984620885A
:10889000801D404502D90C20BDE8F0813846FFF725
:1088A000C3FF064600BF304600B1F5E700BF052014
:1088B000218868542088401C208012202188685418
:1088C0002088401C208022885119388804F00CFD33
:1088D00021880844208022885119788804F004FDFA
:1088E0002188084420800020D6E7000010B5044607
:1088F00000BF04A240F22D112046FDF78BFC00BF03
:1089000010BD00002E2E5C2E2E5C2E2E5C6D61693B
:108910006E2E630030B587B01C216846FDF7CDFD93
:10892000002000904FF4203001904FF4702002900E
:1089300003208DF80C000020ADF80E008DF810001B
:108940000A4805900A4806906846FFF73FF8044633
:1089500000BF25463DB100BF06A24FF4A2712846D4
:10896000FDF758FC00BF00BF07B030BD75BA02006C
:10897000ED8802002E2E5C2E2E5C2E2E5C6D616921
:108980006E2E6300F8B505460C46607A88B9207AE9
:1089900010B91048476801E00E4887682A463946F2
:1089A0006068FEF77DFC064616B1304603F028FFEE
:1089B0000EE0002020720748406948B101208DF880
:1089C0000000ADF80250034841696846884700BF7F
:1089D000F8BD0000A830002010B501220021084693
:1089E000FFF7D4FB044600BF1CB1072C01D0204682
:1089F00010BD00BF072202210120FFF7C7FB04467C
:108A000000BF1CB1072C01D02046F1E700BF0422B3
:108A100002210020FFF7BAFB044600BF1CB1072C5F
:108A200001D02046E4E700BF0020E1E72DE9FF4147
:108A300005460C46002002900390ADF80840ADF8C2
:108A40000A40009001906A4602A9284690DF064637
:108A5000002E2CD0304602F065FD074616490988E5
:108A6000012242EA01403B462A46144901F0F4FF44
:108A7000BDF8000010B9BDF8020058B1BDF80230D1
:108A8000BDF800200C490988012747EA01400CA1E4
:108A900001F0E2FFBDF8040048B1BDF8042006492A
:108AA0000988012343EA0140154901F0C9FF304616
:108AB00004B0BDE8F0810000D82B0020D4DA020019
:108AC00054686520726571756573746564205458C7
:108AD0002F5258207061636B6574206C656E6774EB
:108AE0006820697320746F6F206C6F6E67206279E5
:108AF0002025752F2575206F63746574732E000013
:108B000020DB020010B50021034801F0E7F804461D
:108B100084F3100010BD00001C39002001461448E9
:108B20000078144A127890421DD011480078401CF9
:108B30000F4A107010460078022801D100201070F2
:108B40000D480B4A127850F8220008600B4A08685A
:108B500012681044094A10601046006820F07F40F7
:108B60001060012070470020086000BFFAE7000095
:108B70002C2B00202D2B0020242B0020202B00202C
:108B80002DE9F84305460E461746984669461048B3
:108B9000006800F0FDFF044614B90420BDE8F88326
:108BA0001C212046FDF789FC012020712560C4F8B6
:108BB000088008480068B6FBF0F0E060676169462D
:108BC0000348006801F00EF803F0BAFB0020E5E767
:108BD00004D80200F8D7020010B50446D4E90321F6
:108BE000501828DF10BD000013480078062820D157
:108BF0001148001D007800F00F00D0B90E48083071
:108C0000007800F0F000302801D1012070470A48B8
:108C10000830007800F0F000402801D10120F5E78D
:108C200005480830007800F0F000502801D10120FC
:108C3000ECE70020EAE70000E00F00F013480078BE
:108C4000062820D11148001D007800F00F00D0B98F
:108C50000E480830007800F0F000302801D10120E3
:108C600070470A480830007800F0F000402801D131
:108C70000120F5E705480830007800F0F0005028A2
:108C800001D10120ECE70020EAE70000E00F00F04E
:108C900013480078062820D11148001D007800F004
:108CA0000F00D0B90E480830007800F0F0003028EE
:108CB00001D1012070470A480830007800F0F00028
:108CC000402801D10120F5E705480830007800F080
:108CD000F000502801D10120ECE70020EAE7000075
:108CE000E00F00F00A48007806280ED10848001D61
:108CF000007800F00F0040B905480830007800F017
:108D0000F000302801D1012070470020FCE700006E
:108D1000E00F00F006480068062806D10448001D50
:108D20000068062801D1012070470020FCE7000000
:108D30003001001013480078062820D11148001D8A
:108D4000007800F00F00D0B90E480830007800F02D
:108D5000F000302801D1012070470A48083000781F
:108D600000F0F000402801D10120F5E70548083067
:108D7000007800F0F000502801D10120ECE700203D
:108D8000EAE70000E00F00F00A48007806280ED15C
:108D90000848001D007800F00F0040B90548083071
:108DA000007800F0F000302801D101207047002049
:108DB000FCE70000E00F00F013480078062820D1FF
:108DC0001148001D007800F00F00D0B90E4808309F
:108DD000007800F0F000302801D1012070470A48E7
:108DE0000830007800F0F000402801D10120F5E7BC
:108DF00005480830007800F0F000502801D101202B
:108E0000ECE70020EAE70000E00F00F00A480078F5
:108E100006280ED10848001D007800F00F0040B968
:108E200005480830007800F0F000302801D101201A
:108E300070470020FCE70000E00F00F00A480078CF
:108E400006280ED10848001D007800F00F0040B938
:108E500005480830007800F0F000302801D10120EA
:108E600070470020FCE70000E00F00F00A4800789F
:108E700006280ED10848001D007800F00F0040B908
:108E800005480830007800F0F000502801D101209A
:108E900070470020FCE70000E00F00F030B587B01D
:108EA00004460D462068806808B907B030BD182117
:108EB00001A8FDF702FB0295A0680690207910B189
:108EC000012815D109E001208DF8040020690390E4
:108ED000E0680490606905900BE002208DF80400C2
:108EE0000749E0680968484303906069059000E01D
:108EF00000BF00BF2068816801A8884700BFD4E791
:108F0000F8D70200F0B5034600241FE0124E306887
:108F100006689E4203D90668F61A06601AE00668DB
:108F20009B1B06683444002606600B4E35680A4FCA
:108F3000C6693E60C66846B10E1926F07F46466097
:108F4000C66886601668C661156000BF0248006882
:108F50000028DBD100BFF0BD1C2B002070B50446FB
:108F60000D462A460021204600F009F8A068401C62
:108F7000A06070BD01468A68C868801A704710B545
:108F800083680B44848823400468E35C137010BD3D
:108F9000C26883881A4003689954C268521CC26030
:108FA000704730B504461088C01C984201D90C2087
:108FB00030BD0220158848551088401C10800120C3
:108FC000158848551088401C108015884C5510880D
:108FD000401C10800020EBE770B504460D46982237
:108FE000115B0122D4F89400FEF72EFB064606B171
:108FF000357004F13C0204F1940104F1540072DF75
:1090000070BD10B5002001F0B1F910BD3EB500BF34
:109010009DF8000020F00F00401C00909DF800001B
:1090200020F0F0001030009000BF0D2216A168461D
:109030007CDF044600BF254635B100BF16A2B5212E
:109040002846FDF7E7F800BF00BF0020019002901E
:109050001020ADF804003C20ADF806000020ADF86B
:1090600008004FF4C870ADF80A0001A87ADF044682
:1090700000BF254635B100BF07A2BF212846FDF736
:10908000C9F800BF00BF3EBD4E6F726469635F4E9A
:109090004F524449430000002E2E5C2E2E5C2E2E93
:1090A0005C6D61696E2E630070B505460C46608884
:1090B0000C490988884213D1208840F677218842DC
:1090C0000ED1A088C01E08490880084909880322DB
:1090D00042EA014004490B880A8805A101F0BCFC62
:1090E00070BD0000C02A0020C22A00200C2C0020E5
:1090F00044617461206C656E20697320736574200F
:10910000746F2030782558282564290070B51149DE
:10911000114800F096FE044600BF25463DB100BF51
:109120000EA240F2E9112846FDF774F800BF00BF17
:10913000F721094800F076FE044600BF25463DB100
:1091400000BF06A24FF4F6712846FDF763F800BF92
:1091500000BF70BDA99002001C2C00202E2E5C2E9A
:109160002E5C2E2E5C6D61696E2E630010B501F0D1
:10917000DDFA01F07BFE10BD70B504460D460948CE
:109180006060094800F077FD50B902F009F906491E
:1091900008741C238C2205490548006800F0E4FC93
:1091A000002070BDF8D70200E033002054330020C7
:1091B00004D80200024600210CE001EB8100074BBD
:1091C00033F82000904204D101EB810003EB8000D2
:1091D0007047491C0029F0D00020F9E794300020A6
:1091E0002DE9FC5F83460E4691461F46DDE90C459E
:1091F000002E01DA704200E0304682464FF001084E
:1092000003E09AFBF9FA08F10108CA45F9DA474583
:1092100000D9B84634B1002E03DB05F00400042861
:1092200000D1641E05F0020000B167B105F0010035
:1092300048B944B104E0641E20215846FFF71CFAE7
:109240000CB1A045F7D3002E05DA76422D21584601
:10925000FFF712FA07E005F00400042803D12B21E0
:109260005846FFF709FA05F0020002280DD105F073
:10927000010050B94FB944B104E0641E3021584692
:10928000FFF7FAF90CB1A045F7D33B464A46314601
:109290005846CDE9004504F03FF8BDE8FC9F30B5E5
:1092A00002460020137803F003031BB11378C3F3C5
:1092B00080034BB31378C3F38003CBB1137803F06F
:1092C0000303012B02D0022B10D107E01388C3F354
:1092D00083139B1C0C6823440B6008E00B68022579
:1092E000146805EB945423440B6000E000BF0AE0CF
:1092F0000124136804EB93531488C4F389142344A2
:109300000C6823440B60012030BD00000146034877
:10931000007A08B1012070470020FCE7E03300200C
:109320002DE9F0410446A08800EB020CB4F804805B
:10933000904501DD104600E0A088A8EB0005E0881C
:10934000C618B4F80680984501DD184600E0E088AC
:10935000A8EB00074888B4F80080404504DB488843
:10936000B4F80280404502DD0020BDE8F081888825
:10937000A84202D38888604501D90020F5E7C88853
:10938000B84202D3C888B04201D90020EDE70120DD
:10939000EBE70146086808B102680A607047000000
:1093A00010B50848007850B1002405E0022C02D026
:1093B0002046FEF71DFE641C042CF7D301E0FEF7E7
:1093C00043FE10BDD42A002010B502F001F90020A0
:1093D0000149887010BD00003C310020F721018058
:1093E00017214180002101714171FB2181711B21F5
:1093F000C17170472DE9F041064600274748D0F873
:10940000008078E016B13446E66947E044480078C9
:1094100000EB40014248001D00EBC105001F007831
:10942000401C3F490870084600788978884202D17C
:1094300000203B4908706C68287801281AD002285F
:1094400002D0032817D107E0686803F065FD00B17A
:109450000127002020744EE007E030490868002111
:1094600001742E4AC169116000BF2C4800680028B1
:10947000F3D140E000E03EE000BF207C00B13AE0E4
:10948000A8686060E868A0602869E0606869A06119
:109490002448007808B10020606000BF224960685D
:1094A0000968401A20F07F402049884208D21E49AE
:1094B0006068096803F0C2FCA168084420600FE0FE
:1094C00019486168006803F0B9FC0546A068A84225
:1094D00003D9A068401B206001E00020206000BF8D
:1094E00000206060A060012020740020E061204620
:1094F00003F0DEFC00BF002E84D109480078084943
:1095000049788842F8D11FB904480068404502D024
:109510000120BDE8F0810020FBE700001C2B0020AB
:109520001C3200202F2B0020202B0020FFFF7F006B
:1095300070B54FF40041002001F016FB044600BF57
:1095400025463DB100BF05A240F2A1212846FCF707
:1095500061FE00BF00BF01F0D7F870BD2E2E5C2E5B
:109560002E5C2E2E5C6D61696E2E63002DE9FF412D
:1095700000272E4800F078FB2C48001F00F074FBF9
:109580002B48406803902A4885680398284028495A
:109590000C3101EB800800BF03A94046FFF77FFEB6
:1095A00030B10398284022490C3101EB800800E0DB
:1095B00000E0F1E700BF00240AE00398411C2840C6
:1095C00003911B490C3151F820004DF82400641C14
:1095D000022CF2D3009800F0030001280DD00228DD
:1095E00014D1BDF806700421009801EB9050401E84
:1095F000039901EB9000039009E0BDF80670009814
:10960000C0F3831003990844039000E000BF00BF3B
:109610000648001F00F021FB064616B104490398D6
:109620004860384604B0BDE8F081000018390020D9
:109630000035002088B0A24F381D0390FFF778FF57
:1096400003F050FD07A8FFF733F802F0A3FDFEF783
:1096500075FCFFF7DBFCFFF759FD03F07DF93D6872
:1096600003980668F0B28DF81100310A8DF81210D7
:10967000310C8DF813108DF81450290A8DF815103F
:10968000C02040EA1540C1B28DF816109DF81000B8
:1096900020F0FE00801C8DF8100004A86CDF04464A
:1096A00000BFA046B8F1000F07D000BF85A240F26E
:1096B000ED214046FCF7AEFD00BF00BFFDF70AFC00
:1096C000FFF728F91D2100200022134694469046FA
:1096D00000BF4FF0A04AD14642EA430A4AEA800A54
:1096E0004AEA0C2A4AEA084B09F5E06A4AF821B02E
:1096F00000BF00BF01203FDF76490988032242EA0C
:10970000014075A101F092F9FDF728FC7D4A012185
:109710007D48FDF779FD044600BFA046B8F1000F73
:1097200007D000BF67A240F2FF214046FCF772FD60
:1097300000BF00BF754A07CA8DE80700E846DFF89A
:10974000D091B8F1000F01D1DFF8C88149464046F9
:1097500002F0B6F8044600BFA046B8F1000F07D0EB
:1097600000BF58A240F203314046FCF753FD00BF52
:1097700000BF694802F05AF8044600BFA046B8F19D
:10978000000F07D000BF4FA240F205314046FCF762
:1097900041FD00BF00BF02F073F800224FF400410A
:1097A00059480068FDF77CFD044600BFA046B8F1AB
:1097B000000F07D000BF43A240F209314046FCF73A
:1097C00029FD00BF00BF00BF1D2000BF4FF0A04219
:1097D000114600BFD1F81025C24002F00102002A54
:1097E00034D14E480078002864D101204B490870DC
:1097F00000204B4908704B4991F8540074DF04462F
:1098000000BFA046B8F1000F07D000BF2DA24FF453
:1098100046714046FCF7FEFC00BF00BF062242A195
:1098200006A87CDF044600BFA046B8F1000F07D0B1
:1098300000BF24A240F21B314046FCF7EBFC00BF06
:1098400000BFFDF747FBFDF789FB33E034480078A4
:1098500000282FD101203249087000202F490870BC
:10986000304991F8540074DF044600BFA046B8F1B7
:10987000000F07D000BF13A240F229314046FCF789
:10988000C9FC00BF00BF062229A106A87CDF044650
:1098900000BFA046B8F1000F07D000BF09A24FF4E7
:1098A0004B714046FCF7B6FC00BF00BFFDF712FB52
:1098B000FDF754FB01F0F6FFFFF758FC84E70000CA
:1098C000801000102E2E5C2E2E5C2E2E5C6D616999
:1098D0006E2E63000C2C00204465627567206C6F4F
:1098E0006767696E6720666F722055415254206F1A
:1098F0007665722052545420737461727465642EBC
:109900000000000055D6020010D7020038D7020030
:1099100053D6020014D70200C82A0020C92A00200A
:10992000CA2A00203C2C00204E5250205630000005
:109930004E525020563100002DE9F04105460E46AA
:1099400014469846A888871C2088801C38444045C7
:1099500002D90C20BDE8F081FE2F01D90C20F9E7D7
:10996000781C218870542088401C2080FF2021888A
:1099700070542088401C208022889119288803F088
:10998000B3FC218808442080A88800280DDDA86841
:1099900008B90720DEE7AA8823889819A968FCF788
:1099A00073FD2088A988084420800020D2E72DE993
:1099B000FF5F07468B46144698460397039FFD8832
:1099C000B94608F10400B0FBF5F0029008F104007C
:1099D000B0FBF5F105FB1100019008F104002044F3
:1099E0002844401EB0FBF5F0C0B2009004E0D9F866
:1099F00000900298401E029002980028F7D18246FB
:109A000001982E1AA64201D9204600E030460646AB
:109A100020E00E9848B109F10402019BD1180BEB2C
:109A20000A003246FCF730FD08E00BEB0A0109F1B1
:109A30000402019BD0183246FCF726FD002001905D
:109A4000D9F80090A41BB244A54201D9204600E0F9
:109A500028460646002CDCD1BDE8FF9F70B50346C2
:109A60000C469CB101F0B2F8054600220AE0084815
:109A700000EB820148881E68B04202D11A600020C3
:109A800070BD521CAA42F2D30520F9E70020F7E787
:109A9000D82B00202DE9F84F05460F46144698466E
:109AA0002878012804D1687810B90720BDE8F88F1C
:109AB0002088801C404508D82878012807D12088B4
:109AC000801C69780844404501D90C20EEE72088C5
:109AD000A8EB0000801E86B200962188891CC81958
:109AE00069467DDF814600BF484600B1DEE700BF22
:109AF0002878022806D1BDF80000B04202DC4FF001
:109B0000090A0BE04FF0080A2878012805D1687887
:109B1000B04202DC6878009000E00096BDF80000DA
:109B2000FE2801D90C20C1E7BDF80000401C2188A7
:109B300078542088401C2080208807F800A02088C6
:109B4000401C20802088BDF80010084420800020A0
:109B5000ACE770B504462046FCF7B5FB05460DB1F1
:109B6000002070BD1120FCE710B5044609B90E2095
:109B700010BD92FBF3F003FB102008B10920F7E7BA
:109B8000216000206060A060A281E38100BFEFE758
:109B900070B504460D4629462046FCF749FB18B12E
:109BA0002A882168881870BD0020FCE770B505463A
:109BB0000C4620886188884204D12846FCF77AFB4D
:109BC000012070BD0020FCE770B504460D46294613
:109BD0002046FCF752FB18B16A882168881870BDCE
:109BE0000020FCE770B505460C4620886188884255
:109BF00004D12846FCF738FB012070BD0020FCE7AB
:109C000070B505460C4604F01F0301229A40D1436B
:109C1000620905EB820000F040F8064670BD10B501
:109C20000246480952F8200001F01F040123A34016
:109C3000184008B1012010BD0020FCE770B50546B2
:109C40000C4604F01F03012202FA03F1620905EB3E
:109C5000820000F04EF8064670BD10B504460021A3
:109C6000204600F025F810BD10B50446012120461D
:109C700000F03FF810BD10B504460121204600F069
:109C800022F810BDF8B504460D466A46294620461E
:109C9000FCF765FB06460098F8BDF8B504460D468E
:109CA0006A4629462046FCF740FB06460098F8BD68
:109CB000F8B504460D466A4629462046FCF735FBB2
:109CC00006463046F8BDF8B504460D466A462946B4
:109CD0002046FCF71DFB06463046F8BDF8B50446A5
:109CE0000D466A4629462046FCF706FB06463046E6
:109CF000F8BDF8B504460D466A4629462046FCF7ED
:109D000007FB06460098F8BDF8B504460D466A46BE
:109D100029462046FCF730FB06460098F8BDF8B50A
:109D200004460026002000906846FDF731FB2068BD
:109D300000686168884215D920680068401E226862
:109D400010600178204600F033F80646207A21683A
:109D50000978401AC5B220680079A84201DA206863
:109D6000057100BF9DF80000FDF718FB3046F8BDF7
:109D70000246D068081A938AB0FBF3F0C0B270476D
:109D8000F8B504460D462E46002000906846FDF7C3
:109D9000FFFA31462046FFF7EBFF21680A68511CA5
:109DA0002368196010709DF80000FDF7F7FAF8BD00
:109DB0000246938AD06801FB0300704710B5014644
:109DC00000BF09B90E2010BD00BF087A0B79C01A78
:109DD000C2B2D1E90030186005E008680368581C79
:109DE0000C6820601A70101EA2F10103DAB2F4D1DF
:109DF0000B68187100BFE6E730B502460B46D40881
:109E000002F00702012090401D5D284030BD30B5B2
:109E10000B46C20800F007009C5C012585402C43DE
:109E20009C5430BD024600BF0AB90E20704700BFE7
:109E3000172901DBF72901DD0720F7E71180002052
:109E4000F4E770B504460E4600BF0CB90E2070BD95
:109E500000BF2661F72020806080FB202071002554
:109E600005E0A11D01EBC500FFF7B8FA6D1C002D40
:109E7000F7D00020EBE700002DE9F04706468846C2
:109E80004546B488012C01DBBDE8F08730882428E2
:109E900020D006DC102809D011280CD0232823D18B
:109EA0001DE03A280CD055281ED10EE03146284638
:109EB00001F092FE19E03146284601F05FFF14E000
:109EC0003146284601F0C4FF0FE03146284601F034
:109ED0005FFF0AE03146284601F0DCFE05E031462E
:109EE000284601F001FF00E000BF00BFA81D00EB05
:109EF000C400007908B3A81D30F834102046A5DF4F
:109F0000074657B90021A81D00EBC40001710121CB
:109F1000A81D00EBC40041710EE0112F0CD0384693
:109F200001F000FB814606490988012242EA01400E
:109F30004A4604A100F084FD00BF00BFA4E7000072
:109F4000D82B002073645F626C655F676174746313
:109F50005F65786368616E67655F6D74755F726574
:109F6000717565737428292072657475726E6564E5
:109F70002025732E00000000024600BF0AB90E2003
:109F8000704700BF00BF1078DE2801D00820F7E737
:109F900000BF51800020F3E7024600BF0AB90E203F
:109FA000704700BF00BF09B90E20F9E700BF107865
:109FB000DE2801D10820F3E708685060DE20107029
:109FC0004FF6FF7050800020EAE770B504460E4659
:109FD00000BF06B970BD00BF00BF04B9FAE700BFFB
:109FE000354600BF2878DE2800D0F3E700BFA08800
:109FF0006988884202D1284603F033FA2088012874
:10A0000006D0022809D0112811D0512817D109E013
:10A01000211D284602F008F812E0211D284602F012
:10A0200002F80DE0211D284601F0A8FF08E0A088F5
:10A030006988884202D14FF6FF70688000E000BF57
:10A0400000BF00BFC6E701464FF08040405808B14E
:10A05000012070470020FCE708B500224FF0804146
:10A060000A500958009100BF08BD0000014908606E
:10A070007047000008030040012291070A50704712
:10A0800010B500240C48007808B1852411E00020A8
:10A090000949886048600861C860084801F086FA8C
:10A0A000044601F07DF908B901F076FA0120024971
:10A0B0000870204610BD00003C3100200D870200D2
:10A0C00008B5002000906846FDF762F90748C068AF
:10A0D000401E0649C8600846C06808B9FFF774F911
:10A0E0009DF80000FDF75AF908BD00003C31002042
:10A0F0002DE9F04104460D461646002720780C490C
:10A10000085C30B132462946201D01F02BFB074682
:10A110000AE020780649085C30B93246294604F145
:10A120000C0001F0C7FA07463846BDE8F081000090
:10A13000FC2A00200FB438B50446059810B938BC85
:10A140005DF814FB0020009006A800906A462046A7
:10A15000059900F012F80020009000BFEFE770B5FD
:10A160000446A06800B970BDD4E90403A268216860
:10A1700098470020A06000BFF5E72DE9FC5F82460C
:10A180000D4614460DB9BDE8FC9F00BF2E786D1C2E
:10A1900006B9E1E0252E70D100274FF0010900BF7C
:10A1A0002E782B2E0CD02D2E02D0302E0CD103E089
:10A1B00047F001076D1C0AE047F002076D1C06E03E
:10A1C00047F004076D1C02E04FF0000900BF00BF1C
:10A1D000B9F1000FE4D14FF0000800BF2A2E06D1DC
:10A1E0002168081D2060086880446D1C0DE02E78F1
:10A1F000302E01DB392E00DD07E06D1CA6F13000AA
:10A2000008EB880100EB4108E8E700BF4FF0000BC6
:10A210002E782E2E10D16D1C00BF2E78302E01DB33
:10A22000392E00DD07E06D1CA6F130000BEB8B0131
:10A2300000EB410BF1E700BF2E7800BF6C2E01D080
:10A24000682E02D16D1C2E7800E000E0F6E700BF1A
:10A25000692E21D008DC252E6DD0582E39D0632EE2
:10A260000CD0642E6CD116E0702E4CD0732E3ED0E4
:10A27000752E1FD0782E63D12AE065E02168081D75
:10A280002060D1F8009009F0FF000190504601993C
:10A29000FEF7F2F955E000BF2168081D2060D1F8F3
:10A2A00000905B460A2249465046CDE90087FEF7FA
:10A2B00097FF46E02168081D2060D1F800905B46BA
:10A2C0000A2249465046CDE9008703F025F838E0D8
:10A2D00000BF2168081D2060D1F800905B46102265
:10A2E00049465046CDE9008703F016F829E0216879
:10A2F000081D2060086801903B464246504601997F
:10A3000002F022FD1DE02168081D2060D1F80090B8
:10A3100030215046FEF7B0F978215046FEF7ACF9EF
:10A32000002008210B461022CDE900104946504676
:10A3300002F0F2FF05E025215046FEF79DF900E00E
:10A3400000BF00BF6D1C03E031465046FEF794F994
:10A35000287800287FF41AAF00BF9AF80C0010B1DB
:10A360005046FFF7FCFE00BF0DE7000070B5044645
:10A370000CB12068D0B900250EE005EB85000E4930
:10A3800001EB8004206830B12068C169204688470D
:10A3900008B1012070BD6D1C08480749401A1421FE
:10A3A000B0FBF1F0A842E8D80020F3E72068C169CB
:10A3B00020468847EEE70000000000000000000093
:10A3C00002460120044B58741846007A08B901204F
:10A3D00070470020FCE70000E033002070B5044621
:10A3E0000D46012C01D0032C0BD1002005494874E7
:10A3F000012C01D1012000E000200249087401F085
:10A4000057FF70BDE033002070B504460E46022CA5
:10A4100002D0032C00D070BD1C48007A20B1012866
:10A4200003D0022826D101E0F5E723E00025022C25
:10A4300002D0032C0CD105E01548006801F06EFD38
:10A44000054606E01248006801F056FD054600E0AA
:10A4500000BF00BF6DB100200C490872022C00D172
:10A4600000E00D2001460A480068FEF717FD01F0E4
:10A47000FDFE00BF00BF0548407C10B901F018FF89
:10A4800001E000F093FF00BFC5E70000E0330020CB
:10A49000602B002010B50A4600BF4FF0A0431946BC
:10A4A00001F5E06353F8203023F4403401F5E06314
:10A4B00043F8204053F8203043EA024401F5E063BA
:10A4C00043F8204010BD10B561B900BF00BF4FF088
:10A4D000A0421346012404FA00F2C3F80C2500BF81
:10A4E00000BF0CE000BF00BF4FF0A04213460124A4
:10A4F00004FA00F2C3F8082500BF00BF00BF10BD7A
:10A5000038B50B46074C24680094014606E05DF818
:10A510002140D4F810551560121D491CC4188C42F6
:10A52000F5D838BDA0D7020001460148084470475D
:10A530000060004038B504462046FFF7F5FF0021D3
:10A5400001602046FFF7F0FF0068009000BF38BDB3
:10A5500010B504462046FFF7E7FF0068012800D148
:10A5600010BD0020FCE7000070B504460E46FCF765
:10A5700063FF0546681C08B9284670BDE8B2207222
:10A5800000BF0A48D0F8100428B90848C0F81044A1
:10A590000020606008E00548D0F810044068606062
:10A5A0000248D0F8100444602846E6E70035002051
:10A5B000704710B5FCF774F910BD704738B5044604
:10A5C0000D4604484023044A29460090204600F0E6
:10A5D00005F838BD3DC80200003400202DE9F04FD9
:10A5E00093B082460E4617469846DDF87090304686
:10A5F00000F0E3FB18210DA8FBF75FFF0D97CDF8E6
:10A600003880CDF8489000252B46082207A930460F
:10A6100000F0F0FB082509980A90BDF82000ADF87D
:10A620002C00BDF82200ADF82E0000208DF831007E
:10A63000079800F0030001281BD107984FEA902BE0
:10A640000798C0F3C2008DF830000798C0F3831458
:10A65000A2002B4601A9304600F0CCFB05EB840597
:10A660000DA80AAB224601A90090584600F0E4FA72
:10A6700027E0079800F00300022822D107984FEA4C
:10A68000905B0798C0F3C2008DF8300000BFBBF1AB
:10A69000080F01D2584600E0082004462B46224607
:10A6A00005A9304600F0A6FB2544ABEB040B0DAB2F
:10A6B0000AAA214605A800F0FBF9BBF1000FE6D17C
:10A6C00000BF304600F087FB13B0BDE8F08F0000FC
:10A6D00010B502460B4C04EBC203012906D0022937
:10A6E00006D0032906D0042908D105E0022007E09E
:10A6F000042005E0187903E0587901E0002000BF4C
:10A7000000BF10BD68E2020010B54FF0FF34FFF744
:10A7100050FF04210448FFF727FF044600BF012033
:10A720000149487200BF10BD742B00202DE9F04F85
:10A730008BB0FDF7B1FF18B100200BB0BDE8F08F72
:10A740000020B249C1F8180400BF00BF00BFBFF32A
:10A750004F8F00BF00BF00BF084640680A90084600
:10A7600084680A9820400C3101EB800A00250026FD
:10A770000020069000BF0AA95046FEF790FD88B160
:10A78000A24800680A99884205D8A04800689F49F5
:10A7900048600020D1E70A9820409C490C3101EB29
:10A7A000800A00E000E0E6E700BF00270BE00A981F
:10A7B000411C20400A9195490C3151F8200007A90D
:10A7C00041F827007F1C022FF1D3079800F0030007
:10A7D00002287CD10798800D059050210798B1EB95
:10A7E000905F02DD0798800D00E0502081460798B9
:10A7F00069F39F50079009F1080004900798C0F38F
:10A80000C20006908248049900F07AFA0546002DAD
:10A810005BD0284600F0D1FA3346082207A9284623
:10A8200000F0F6FA08360A982040611C081A4FEA30
:10A830008008C14535D9B8F1000F06D00A982040EC
:10A8400072490C3101EB800001E070480C3003903C
:10A85000B8F1000F01D0404600E0484600F0FF0B81
:10A86000B8F1000F02D069480C3000E000200290DF
:10A87000B8F1000F02D0A9EB080000E00020C0B240
:10A88000019033465A462846039900F0C1FA5E44C7
:10A89000029828B133462846DDE9012100F0B8FAD4
:10A8A0000CE00A98204059490C3101EB800B3346EB
:10A8B0004A465946284600F0ABFA00BF0598C01C2E
:10A8C0000A9901EB90000A9000BF44E0FFE7079867
:10A8D00000F0030001283ED10798C0F3831006283A
:10A8E00003DA0798C0F3831000E00620079960F3AD
:10A8F000891107910798C0F3831000F102080798A7
:10A90000C0F3C20006904FEA8801414800F0F8F910
:10A910000546FDB1284600F050FA3346082207A943
:10A92000284600F075FA083600270EE00A98421C07
:10A9300020400A92354A0C3202EB80013346042251
:10A94000284600F065FA361D7F1C0798C0F3831077
:10A95000B842EBD800BFCDB32C48D0F81084D0F863
:10A96000180418B1284600F036FA2EE016E04FF031
:10A97000000900BF98F80900012800D18146B9F10B
:10A98000000F08D000BFD8F80000294602684046F2
:10A99000904700BF00BFD8F8048000BFB8F1000F97
:10A9A000E5D1284600F017FA0020059005A8FCF72D
:10A9B000EFFC1648D0F8180410B914490A984860FA
:10A9C0009DF81400FCF7EAFC00BF19E0FFE70F4810
:10A9D000D0F8108408E0C146D9F8000081684846E4
:10A9E000884700BFD8F80480B8F1000FF3D10949B7
:10A9F0000988022242EA014007A100F017F800BFCF
:10AA0000FDF74AFE80F0010097E6000000350020C7
:10AA1000F0E202000C2C00204261636B656E6473EF
:10AA200020666C75736865640000000070B50446AC
:10AA30000D4600231A462946204602F04DF970BD06
:10AA4000F8B505460E461446009401236A46314681
:10AA5000284602F041F9F8BD2DE9FC4106460F46B3
:10AA600014461D460094019502236A463946304635
:10AA700002F032F9BDE8FC812DE9F04786B00646C8
:10AA80000F4614461D46DDE90F9ADDF83880019423
:10AA90000295CDF80C80CDF81090CDF814A00523C8
:10AAA00001AA3946304602F017F906B0BDE8F08732
:10AAB0002DE9F05F07460E4690461D46082E01D947
:10AAC000BDE8F09F95F80C90002028732946404679
:10AAD00001F07AFB00240CE0B44205D23A5D1CA1DF
:10AAE0002846FFF727FB03E01BA12846FFF722FBC0
:10AAF000641C082CF0D319A12846FFF71BFB002487
:10AB00001AE0B44213D217F804A0FBF7B9FC0068AE
:10AB100010F80A0000F03E0008B1504600E02E2078
:10AB200083465A460EA12846FFF704FB03E00DA119
:10AB30002846FFF7FFFA641C082CE2D301222946BD
:10AB4000404601F003FB85F80C9000BFB8E7000019
:10AB50002025303278000000202020007C000000FA
:10AB600025630000200000002DE9F04107468846DB
:10AB700000BFFF2010498860002008604860C1F8CD
:10AB80001804C1F8140481F820040C4800F01DF9E1
:10AB9000054615B12846BDE8F08109480949401A23
:10ABA000C608002404E0084901EB84000480641C0A
:10ABB000B442F8D30020EEE700350020F0E20200B6
:10ABC000F0E2020068E20200D82B002002480349AC
:10ABD000401AC00870470000F0E2020068E202007C
:10ABE00013B50C4621466846FEF738FF28B90448DD
:10ABF000009A00EBC20108681CBD0020FCE70000C1
:10AC000068E2020070B50B48D0F8104401200949F1
:10AC100081F820040AE000BF0120607200BF2546D1
:10AC2000286841682846884700BF6468002CF2D134
:10AC300070BD0000003500202DE9FF4707460C4697
:10AC4000164698460C9D95F80C90002028732946CE
:10AC5000404601F0B9FA072E47D2DFE806F00409B2
:10AC60000F161F2A370039462846FFF763FA3DE0E2
:10AC7000394628462268FFF75DFA37E0394628460C
:10AC8000D4E90023FFF756FA30E0A0680090394677
:10AC90002846D4E90023FFF74DFA27E0D4E9020162
:10ACA000CDE9000139462846D4E90023FFF742FAEE
:10ACB0001CE0D4E902122069CDE900120290394665
:10ACC0002846D4E90023FFF735FA0FE0D4E9022340
:10ACD000D4E90410CDE90023CDE902103946284615
:10ACE000D4E90023FFF726FA00E000BF00BF0022EE
:10ACF0002946404601F02AFA85F80C90BDE8FF8706
:10AD00002DE9F84F07468A46B88AA0F104080AF1EF
:10AD100004004044401EB0FBF8F0C0B2009038463A
:10AD2000FEF7FDFF044614B90020BDE8F88F0020AF
:10AD3000207101216171A4F8068025460098A0F1D8
:10AD4000010B2C462F604FF0000912E03846FEF749
:10AD5000E6FF064636B16079401C60712E603760B0
:10AD6000354604E0204600F008F80020DDE709F150
:10AD70000109D945EAD32046D7E72DE9F05F04461B
:10AD8000274697F805802646A8F1010B002501E02B
:10AD900036686D1C5D45FBD3D6F800A0264600251D
:10ADA00007E0D6F8009031465046FEF7E9FF4E46E0
:10ADB0006D1C4545F5D3BDE8F09F70B504462546AA
:10ADC0000121281DFEF75EFF70BD10B50446204628
:10ADD000FEF7F4FF10BDF8B5044626460121301DEC
:10ADE000FEF792FF00906D46287810B92046FFF7D5
:10ADF000C4FFF8BDF8B504460D4616461F460120AF
:10AE00003B463246294600902046FEF7D0FDF8BD6D
:10AE1000F8B504460D4616461F4600203B4632460E
:10AE2000294600902046FEF7C2FDF8BD10B500206F
:10AE30000A49087000BF0A49086000BF00BF00BF90
:10AE400000BFBFF35F8F00BF00BF00BF00BF054959
:10AE5000054800F00EFB002010BD0000702B002004
:10AE60006C2B002040D80200F433002038B500BF1E
:10AE7000002000906846FCF78BFA00BFF1EE100A44
:10AE8000044624F09F00E1EE100A00BF00BF00BF9F
:10AE900000BF00BFBFF35F8F00BF00BF00BF262011
:10AEA00000F01F0201219140094A430942F8231092
:10AEB00000BF9DF80000FCF771FA00BF00F070FAC7
:10AEC00010B141DF044602E020BF40BF20BF38BDC3
:10AED00080E200E010B5044600BF03A2CC2120466A
:10AEE000FBF798F900BF10BD2E2E5C2E2E5C2E2E87
:10AEF0005C6D61696E2E6300014609B90E207047D2
:10AF00000248006808600020F9E700002CDA02001F
:10AF1000FEB506460C462046FFF7EEFF05460DB18E
:10AF20002846FEBD00200090019002908DF8006040
:10AF300001208DF802000621ADF80410694620209A
:10AF4000226869DF054665B1284600F0EBFA07463E
:10AF500048490988012242EA01403A464649FFF73A
:10AF60006FFD002000900190029001208DF80100FB
:10AF700000208DF802008DF8030069464020226809
:10AF800069DF054665B1284600F0CCFA0746394925
:10AF90000988012242EA01403A463849FFF750FD4C
:10AFA00000200090019002908DF80060F720ADF82D
:10AFB000020069462320226869DF054665B12846FC
:10AFC00000F0B0FA07462B490988012242EA014005
:10AFD0003A462B49FFF734FD002000900190029083
:10AFE00001208DF800006946226869DF054665B1D9
:10AFF000284600F097FA07461E490988012242EACE
:10B0000001403A461F49FFF71BFD002000900190C8
:10B0100002904FF4B06000906946A120226869DF79
:10B02000054665B1284600F07DFA074611490988B2
:10B03000012242EA01403A461349FFF701FD002090
:10B040000090019002908DF800006946A0202268CF
:10B0500069DF054665B1284600F064FA07460549F0
:10B060000988012242EA01403A460849FFF7E8FC14
:10B07000002056E7142C0020C0E0020008E1020086
:10B0800054E1020020E002006CE00200CCDF02008C
:10B090002DE9F04104462568204660DF0646206819
:10B0A000A8421FD91A490988022242EA014019A17F
:10B0B000FFF7BCFC16490988022242EA01402A46F1
:10B0C00020A12368FFF7C8FC01F048F92168471A5E
:10B0D0000F490988022242EA01403A4626A1FFF7B9
:10B0E000AFFC00E000BF1EB901202E4908700CE043
:10B0F000304600F017FA074605490988012242EA5E
:10B1000001403A4628A1FFF79BFC3046BDE8F0819C
:10B11000142C0020496E73756666696369656E74E8
:10B120002052414D20616C6C6F63617465642066D0
:10B130006F722074686520536F6674446576696326
:10B14000652E00004368616E676520746865205253
:10B15000414D207374617274206C6F636174696F08
:10B160006E2066726F6D203078257820746F2030E5
:10B170007825782E000000004D6178696D756D208E
:10B1800052414D2073697A6520666F72206170703C
:10B190006C69636174696F6E2069732030782578FB
:10B1A0002E000000D32B002073645F626C655F6526
:10B1B0006E61626C6528292072657475726E6564B3
:10B1C0002025732E000000002DE9F041ADF5027D31
:10B1D00080461A48007818B90DF5027DBDE8F08167
:10B1E0001DE04FF4FA70049004A905A861DF04463D
:10B1F00004B115E005AD124901A800F03AF909E0E3
:10B2000000BF03980646376828467168B84701A80A
:10B2100000F050F900BF03980028F1D100BFE0E72B
:10B2200000BF052C07D000BF06A240F2391120460E
:10B23000FAF7F0FF00BF00BFCEE70000D32B0020DD
:10B2400020DA02002E2E5C2E2E5C2E2E5C2E2E5C22
:10B250002E2E5C2E2E5C636F6D706F6E656E747338
:10B260005C736F66746465766963655C636F6D6D4E
:10B270006F6E5C6E72665F7364685F626C652E638E
:10B280000000000038B51648007808B9082038BD1D
:10B2900001201449087001F07BFA112801D1002027
:10B2A000F5E7022001F092FA002000906846FCF7D2
:10B2B0006FF811DF04460020094908709DF800006E
:10B2C000FCF76CF80CB12046E1E700200549087056
:10B2D00001F04AFC032001F079FA0020D7E70000D2
:10B2E000D02B0020D22B00201CB51C48007808B1C0
:10B2F00008201CBD01201A490870002001F048FAFE
:10B30000112801D10020F4E7002001F05FFA154870
:10B3100000680190002000906846FCF739F8124957
:10B3200001A810DF04460CB9012000E000200B4901
:10B3300008709DF80000FCF731F80CB12046D8E702
:10B340000020074908700949087001F037FD01F035
:10B3500061FC012001F03AFA0020CAE7D02B00205E
:10B36000D22B0020FCD90200996F0200D12B0020C3
:10B370003EB50A49684600F07CF809E0684600F0EE
:10B3800075F8044625686068A847684600F092F89A
:10B39000684600F06BF80028F0D13EBDF0D90200FD
:10B3A0000148007870470000D02B002010B50748F6
:10B3B000007808B9082010BD0548007810B1FFF7E3
:10B3C00061FFF8E7FFF790FFF5E70000D22B0020C0
:10B3D000D02B00202DE9FF41074618E003A84BDFE2
:10B3E000044604B114E01049684600F042F809E050
:10B3F00000BF029805462E6869680398B047684602
:10B4000000F058F800BF02980028F1D100BFE5E72E
:10B4100000BF052C06D000BF04A26B212046FAF71E
:10B42000F9FE00BFBDE8FF8140DA02002E2E5C2E3F
:10B430002E5C2E2E5C2E2E5C2E2E5C2E2E5C636FD0
:10B440006D706F6E656E74735C736F667464657631
:10B450006963655C636F6D6D6F6E5C6E72665F7362
:10B4600064685F736F632E630000000001468868A4
:10B47000704770B504460D46256028686060204618
:10B4800000F001F870BD14E0D0E90021526891424B
:10B4900002D10021816070474168096842685268A2
:10B4A000914203D0416809688160F4E7416808313E
:10B4B0004160E9E710B50446A06800B910BD2168F5
:10B4C000A06889680844A060D4E9011049688842EE
:10B4D00005D16068083060602046FFF7D4FF00BFE8
:10B4E000ECE7000070B502460D4B03F5947413E0D1
:10B4F000E61AF01000EBD076761003EBC6010D686B
:10B50000954201D90C4606E0954202D201F10803AA
:10B5100001E0486870BD00BFA342E9D30020F9E70D
:10B5200060D8020030B504462046FFF7DBFF054631
:10B530000DB9024830BD2846FCE700004CD8020097
:10B540000246505808B1012070470020FCE708B5BA
:10B55000002242504258009200BF08BD01224250D2
:10B5600070470246505808B1012070470020FCE7A0
:10B5700008B5002242504258009200BF08BD012287
:10B5800042507047024A034941F8202070470000AA
:10B590003546526E0006014010B500F03FF801201C
:10B5A0000149086000BF10BD180500400146002099
:10B5B000064A12790AB1852006E0044A1160012288
:10B5C000024B1A7100225A7170470000002B0020B4
:10B5D00010B50C20FEF750FD00BF00BF0348006807
:10B5E000C0F300400028F8D110BD0000180400404E
:10B5F00070B5044604B970BD024EA5012846B04797
:10B6000000BFF8E7E1D70200014601F06040B0F169
:10B61000005F01D1012070470020FCE7F0B507234F
:10B6200000200146C41700EBD4646411A40004F1A7
:10B63000E024D4F800410246C51700EBD5656D1132
:10B64000A0EB45160125B5402C400CB1012400E0CB
:10B65000002444BB00221C4610462146002807DA7D
:10B660004D072F0E104D00F00F06361FAF5503E0AB
:10B670004D072E0E0D4D2E5400BF00BF002000BF01
:10B68000012181400A4A440942F8241000BF00BF4A
:10B69000012181404209920002F1E022C2F800112A
:10B6A00000BF00BF00BFF0BD18ED00E000E400E007
:10B6B00080E200E02DE9F04104460F4690462079F3
:10B6C00000EB400101EBC0001C4901EB8005204666
:10B6D00000F036F818B111263046BDE8F081C5F803
:10B6E0001480AF600020286285F8280000264FF4FF
:10B6F0008E712068FFF72BFF08212068FFF72EFFCF
:10B700002946206801F022FD6868A0B92946206812
:10B7100001F001FD08B90F260BE000BF4FF48E7158
:10B720002068FFF70DFF0028F8D00C212068FFF7F4
:10B7300015FF002068613046CFE70000AC310020E3
:10B740000146087900EB400202EBC000044A02EB1C
:10B750008000406908B1012070470020FCE700002C
:10B76000AC3100202DE9F047044688469146207907
:10B7700000EBC000244901EB80054046FFF744FF81
:10B7800018B910263046BDE8F087204600F03EF894
:10B7900010B111263046F6E7C5F81490C5F80880B8
:10B7A00000264FF490712068FFF7E2FE4FF4AC7171
:10B7B0002068FFF7DDFE20686A69A968C0F84415B3
:10B7C0004FF4A9631A5000BF08212068FFF7D7FE85
:10B7D0006868B0B900BF4FF490712068FFF7C1FEF0
:10B7E00082464FF4AC712068FFF7BBFE0746BAF102
:10B7F000000F01D1002FEED007B10F2600206861A5
:10B8000000BF3046BFE70000D8310020014608796C
:10B8100000EBC000044A02EB8000406908B101203F
:10B8200070470020FCE70000D831002038B50446FE
:10B83000002000906846FBF7ABFD0F480068082821
:10B8400012D20D48007820700B480068401C0A494D
:10B850000860207809490968012282401143074A9B
:10B86000116000BF002500E004259DF80000FBF7F3
:10B8700095FD284638BD0000182B00200805014022
:10B8800001200549086000BF00BF044A106000BFE6
:10B890000220034908707047040301400000014082
:10B8A000142B002010B5002403E0E0B2FFF76AFE7D
:10B8B000641C024800688442F7D310BD182B002096
:10B8C0002DE9F04102460D462548056025480078DF
:10B8D00018B901202349087003E008231846BDE881
:10B8E000F08110782049086000BF5168C9034FF407
:10B8F0007A74B1FBF4F01C490839086000BF1024C9
:10B90000167A2046314600280ADA4F074FEA1768B0
:10B91000164F00F00F0CACF1040C07F80C8005E09A
:10B920004F074FEA176C124F07F800C000BF00BF67
:10B93000102000BF012181400E4C460944F826101A
:10B9400000BF00BF012181404409A40004F1E024AC
:10B95000C4F8001100BF00BF00231846BFE7000075
:10B96000102B0020142B00200C05014018ED00E0E6
:10B9700000E400E080E200E02DE9F041054628788F
:10B98000002831D100261FE000BF2969885DFBF740
:10B99000C9FC0446ACB1112C13D01449098801220A
:10B9A00042EA0140224612A1FFF74AF800BF2746AB
:10B9B00037B100BF19A2EA213846FAF72BFC00BFC5
:10B9C00000BF112CE1D0761CA88AB042DCD8A88A2E
:10B9D000401E2969085C0D2805D100BF0A20FBF72D
:10B9E000A1FC1128FAD000BFBDE8F0810C2C00208A
:10B9F0004661696C656420726563656976696E6726
:10BA0000204E5553206D6573736167652E20457216
:10BA1000726F7220307825782E2000002E2E5C2E3A
:10BA20002E5C2E2E5C6D61696E2E630070B505462E
:10BA300095B1032D13D10220FCF7D6FB044600BFBD
:10BA400026463EB100BF07A240F269113046FAF720
:10BA5000E1FB00BF00BF03E001F040F800E000BFE1
:10BA600000BF70BD2E2E5C2E2E5C2E2E5C6D61698B
:10BA70006E2E630070B50546287880B93B210848D2
:10BA8000008876DF044600BF26463EB100BF05A20F
:10BA90004FF491713046FAF7BDFB00BF00BF70BD97
:10BAA000C02A00202E2E5C2E2E5C2E2E5C6D61692D
:10BAB0006E2E630070B50546AE883046FDF77AFB02
:10BAC000044674B14FF6FF7340F2F31205F108011A
:10BAD00004F10A00FDF724FC607221463046FCF7B1
