:020000040001F9
:10900000A03B0020C1930100C9930100CB93010054
:10901000CD930100CF930100D19301000000000027
:10902000000000000000000000000000D3930100D9
:10903000D593010000000000D7930100D9930100EF
:1090400039970100DB930100099B0100DB930100CC
:10905000DB9301000000000071950100DB9301002B
:10906000DB930100DB930100DB930100DB93010044
:10907000DB930100DB930100DB930100DB93010034
:10908000199B010091970100DB930100DB93010024
:1090900015980100DB93010019980100DB93010092
:1090A000DB930100DB9301000000000000000000E2
:1090B000DB930100DB9301000000000000000000D2
:1090C00000000000000000000000000000000000A0
:1090D0000000000000000000000000000000000090
:1090E0000000000000000000000000000000000080
:1090F0000000000000000000000000000000000070
:10910000000000000000000000000000000000005F
:10911000000000000000000000000000000000004F
:10912000000000000000000000000000000000003F
:10913000000000000000000000000000000000002F
:10914000000000000000000000000000000000001F
:10915000000000000000000000000000000000000F
:1091600000000000000000000000000000000000FF
:1091700000000000000000000000000000000000EF
:1091800000000000000000000000000000000000DF
:1091900000000000000000000000000000000000CF
:1091A00000000000000000000000000000000000BF
:1091B00000000000000000000000000000000000AF
:1091C000000000000000000000000000000000009F
:1091D000000000000000000000000000000000008F
:1091E000000000000000000000000000000000007F
:1091F000000000000000000000000000000000006F
:10920000DFF80CD000F076F900480047E5B5010022
:10921000A03B002030B450E8012F93B2C48923440E
:109220008489A34228BF1B1B0489A34202BFBFF34A
:109230002F8F002007E0C3EA020340E80134002C2E
:10924000E9D14FF001000A6030BC704750E8012FAF
:10925000C2EA024240E801210029F7D1704730B448
:1092600050E8022F1FFAA2F3C488A34202BFBFF343
:109270002F8F00200DE0C48923448489A34228BF96
:109280001B1BC2EA034340E80234002CE8D14FF034
:1092900001000A6030BC704750E8022FC2EA224247
:1092A00040E802210029F7D17047034653E8022F16
:1092B000D988B2EB324F4FF0000017BF92B241EAAB
:1092C000014142EA014104E05A68B2EB324F08BF63
:1092D000012043E80212002AE8D1704730B4044666
:1092E00054E8000F0D4644E80053002BF8D11560F8
:1092F00030BC704730B4044654E8000F40EA010522
:1093000044E80053002BF7D1156030BC704730B4EF
:10931000044654E8000F00EA010544E80053002B1E
:10932000F7D1156030BC704730B4044654E8000FE4
:1093300080EA010544E80053002BF7D1156030BCEA
:10934000704730B4044654E8000F00EB010544E8D0
:109350000053002BF7D1156030BC704730B4044681
:1093600054E8000FA0EB010544E80053002BF7D1AF
:10937000156030BC704770B404464FF0000054E8EC
:10938000006F0D68AE4207BF44E80023012044E8A7
:1093900000630E60002B1CBF0020F0E770BC70471C
:1093A00030B4044654E8000F88422CBF451A0546E5
:1093B00044E80053002BF5D1156030BC7047000025
:1093C0000648804706480047FEE7FEE7FEE7FEE75F
:1093D000FEE7FEE7FEE7FEE7FEE7FEE71D98010079
:1093E000019201002DE9F05F0546002092469B4660
:1093F00088460646814640241BE0284641464746AB
:10940000224600F067F853465A46C01A914110D3DD
:1094100011461846224600F016F82D1A67EB01088F
:109420004F4622460120002100F00DF817EB0009FD
:109430004E41201EA4F10104DFDC484631462A4695
:109440004346BDE8F09F202A04DB203A00FA02F1EF
:10945000002070479140C2F1200320FA03F3194322
:10946000904070470048704754E2010040EA010311
:109470009B0703D009E008C9121F08C0042AFAD2CA
:1094800003E011F8013B00F8013B521EF9D270478E
:10949000D2B201E000F8012B491EFBD27047002236
:1094A000F6E710B513460A4604461946FFF7F0FFE3
:1094B000204610BD421C10F8011B0029FBD1801A68
:1094C0007047034611F8012B00F8012B002AF9D14F
:1094D00018467047202A04DB203A21FA02F00021C6
:1094E000704721FA02F3D040C2F1200291400843B4
:1094F00019467047064C074D06E0E06840F001034E
:1095000094E8070098471034AC42F6D3FFF77CFE8E
:1095100020E9010040E9010070B58C1810F8015BEA
:1095200015F0070301D110F8013B2A1106D110F8FC
:10953000012B03E010F8016B01F8016B5B1EF9D100
:109540002B0705D40023521E0DD401F8013BFAE786
:1095500010F8013BCB1A921C03E013F8015B01F8F1
:10956000015B521EF9D5A142D8D3002070BD000086
:109570002DE9F04700268AB0DFF85091B0464FF44D
:109580008075012437460696284602F03DFE38B124
:10959000D9F80403204203D0284602F02BFE2643CC
:1095A0002D1D64007F1CADB2082FEDD34FF4BE74A7
:1095B000204602F029FE48B1204602F01BFE46F08C
:1095C000004606AA0121002002F000FE404D16F0E0
:1095D000FF0F15D00127002437420DD009EB84017D
:1095E000D1F81005D1F81015C0F3042055F8242047
:1095F000C1F3014102B190477F00641C082CEBD3FA
:10960000002E5FDA4FF0FF30CDF8108054E02819BB
:1096100010F8507F90F9000027F0C008401C3BD0A4
:1096200007A9404602F0B4FA10B34FEA9719404632
:1096300001F080FC55F820701FB1B9F1030F03D081
:1096400006E0B9F1030F27D104A9404602F0A8FAB9
:109650004FF0A04101EB8800D0F8000706A9C0F345
:10966000014A404602F094FA18B1BAF1020F03D051
:1096700012E0BAF1030F0FD1B9F1030F08D1BAF11B
:10968000020F1DD00221404602F084FD761CF6B286
:1096900017B149464046B847641C042CB7D3002E86
:1096A00010D06A460121002002F090FD0699009832
:1096B000884207D006900498002634460790A6E713
:1096C0000321E0E70AB0BDE8F08700000060004039
:1096D0008C29002000F01F020121914040098000E8
:1096E00000F1E020C0F88012704700F01F02012155
:1096F00091404009800000F1E020C0F8001170475F
:1097000000F01F02012191404009800000F1E0209B
:10971000C0F8001270474907090E002806DA00F069
:109720000F0000F1E02080F8141D704700F1E020E8
:1097300080F800147047000070B54FF48076304612
:1097400002F044FB114CB50560B1304602F045FB18
:109750000120C5F80803607920B9012060712168F3
:10976000002088474FF48276304602F02FFB002815
:109770000AD0304602F031FB0220C5F80803216808
:10978000BDE870400120084770BD0000542500204E
:1097900007480021C0F84011C0F84411C0F8481132
:1097A000C0F84C11C0F80011C0F8041104F046B91B
:1097B0000010014000F0CAB970B50E46144900EB24
:1097C000400001EBC0051446E86A183520B10128B5
:1097D0000FD0022805D113E0284600F0EBF9A04293
:1097E00001D2002411E022463146284600F01AFA40
:1097F0000BE0284600F0DEF9A042F4D20446F2E77E
:109800003146284600F0E1F90446204670BD0000CC
:109810001431002004F060B803F062BAF0B5A84833
:10982000A74B012600781B1D1A1D4FF080510628FA
:109830000BD11C78240708D11478C4F30314032C2B
:1098400006D0042C04D0052C02D0062807D011E045
:10985000B1F824439B4DC4F304242C6002E01C782F
:10986000240707D11478C4F30314032C02D1974DB5
:10987000954C6C67D1F83051D1F84442944FC4F301
:1098800042343C6006280CD11C78240709D1147896
:10989000C4F30314032C04D18E4C276827F080777F
:1098A00027604FF080470024C7F80C41C7F81041EB
:1098B000874F3F1F3C60062807D11F783F0704D120
:1098C0001778C7F30317032F02D0062808D01FE02C
:1098D000DFF8FCC103270CF1640CCCF8007007E042
:1098E0001F783F0714D11778C7F30317032F0FD141
:1098F000DFF8E4C10527CCF80070774F78373E6079
:10990000754F08373C600CF1040C3F27CCF8007011
:10991000724F3F68DFF8C8C1CCF800706F4F3F1D31
:109920003F680CF1040CCCF800706C4F08373F68AE
:109930000CF1040CCCF80070684F0C373F680CF148
:10994000040CCCF80070654F10373F680CF1040C24
:10995000CCF80070614F14373F680CF1040CCCF860
:1099600000705E4F18373F68DFF874C10CF1200CAF
:10997000CCF80070594F1C373F680CF1040CCCF840
:109980000070564F20373F680CF1040CCCF8007083
:10999000524F24373F680CF1040CCCF800704F4F45
:1099A00028373F680CF1040CCCF800704B4F2C3773
:1099B0003F680CF1040CCCF80070484F30373F681A
:1099C000DFF81CC10CF1400CCCF80070434F343769
:1099D0003F680CF1040CCCF80070404F38373F68FA
:1099E0000CF1040CCCF800703C4F3C373F680CF194
:1099F000040CCCF80070394F40373F680CF1040C70
:109A0000CCF80070DFF8DCC0FB27CCF8007006282B
:109A100013D11F783F0710D11778C7F30317032F0F
:109A200003D0042F01D0052F07D1D1F85872DFF8E9
:109A3000B8C007F04F07CCF800702C480268D20776
:109A400002D06FF001020260062D08D1D1F8340176
:109A5000062804D12648016841F4806101604FF076
:109A60001021D1F80002002803DBD1F804020028FD
:109A700022DA204A166020480368002BFCD0152308
:109A8000C1F800320568002DFCD0C1F8043201682D
:109A90000029FCD0146001680029FCD0BFF34F8F6F
:109AA0000C48F0380168154A01F4E0611143016087
:109AB000BFF34F8F00BFFDE7124911480860F0BDAA
:109AC000E00F00F0403501400DF0ADBA00C0074096
:109AD0003C050040FCED00E010560040040400107E
:109AE00020C5004018F50040E40E0040000400408E
:109AF0003C17004004E5014000E401400400FA0581
:109B00000090D003182600200149024804F03DB817
:109B1000E829002000200040094882B0D0F8040362
:109B20004FF0000110F0010F07D0064801600068F7
:109B300000900548406802B0004702B0704700003E
:109B400000000140000101405C25002010B5124CCE
:109B500002202061606111A0A06104F17800E06141
:109B60004FF4007020620020A06260620BA1A1642B
:109B7000E06204F51E71E1641021A065C4E91410CF
:109B8000E06509A1E01DFFF79CFC08A12046FFF756
:109B900098FC2020A07110BD143100205465726D16
:109BA000696E616C000000005254540053454747F1
:109BB000455200000269C1688A4203D88068401A91
:109BC000104400E0501A401E70472DE9F047C46869
:109BD0001746894606464FF000083069A04201D971
:109BE000051B02E0B168201A0D1AB0686D1E001B3B
:109BF000A84200D80546BD4200D33D4670682A46BB
:109C000020444946FFF732FCB0687F1B2C44A8442F
:109C1000A944A04200D10024F460002FDDD14046C9
:109C2000BDE8F0872DE9F04104468846D4E90207F3
:109C3000C51BE168606816460844B54206D941462E
:109C4000FFF714FCB819E060BDE8F0812A464146F0
:109C5000FFF70CFC761B08EB050132466068FFF746
:109C600005FCE660F0E702E008C8121F08C1002A00
:109C7000FAD170477047002001E001C1121F002A8D
:109C8000FBD170470121202803DA814005480140BB
:109C900003E0402802DA2038814009B101207047F2
:109CA00000207047FC06FFBD082806D228B1012815
:109CB00003D0042801D0012070470020704710B560
:109CC00001220221002000F0C5FF08B1072810D1B1
:109CD00007220221012000F0BDFF08B1072808D1AA
:109CE00000210A22084600F0B5FF08B1072800D17C
:109CF000002010BD00B5ABB0AC216846FFF7CFFB2C
:109D000002208DF8000000208DF8020006218DF859
:109D100003100121ADF84C100B4A8DF87C10149201
:109D20004FF44871CDE92210084829906946084847
:109D300000F082FA08B100F059F80121044800F05F
:109D400078FA2BB000BD000010250020C1D0010022
:109D50008C27002010B50321044800F037FB0028B1
:109D600003D0BDE8104000F041B810BD8C270020A2
:109D700072B602F0D1FC00BF02F010FB0028FBD14C
:109D8000104C0121208801EB00400FA102F016FCCD
:109D900010480068C00700D000BE2088022101EBF7
:109DA00000400DA102F00AFCBFF34F8F0948E438D0
:109DB00001680D4A01F4E06111430160BFF34F8F68
:109DC00000BFFDE74C260020466174616C2065727F
:109DD000726F7200F0ED00E053797374656D20725C
:109DE00065736574000000000400FA050EB50021DB
:109DF0000091CDE901106A4644F20100FFF7B8FF77
:109E00000EBD10B58268C368934203D001F0F0F92B
:109E1000002010BD052010BD10B58268C3689A1AD5
:109E200083889A4203D801F0EDF9002010BD042088
:109E300010BD0000074B9B7823B12AB120B1006808
:109E4000037C1BB1082070470720704741744261B2
:109E5000002070470C2A002070B503F02DFB10483D
:109E600000240B21047044700E4D817014206C602E
:109E70002C706C70FFF72EFC07211420FFF74BFCB1
:109E80001420FFF732FC0848046007211120FFF777
:109E900042FC0548001F0068A860002070BD00005B
:109EA0000C2A002068250020081501402DE9FC47F8
:109EB000DFF8789099F8023073B368B3052902D2BD
:109EC0000720BDE8FC87436933B3437C012B25D0D1
:109ED000002704460025884616468DF8005068463F
:109EE00000F058F801A803F07BFFC8B10121017010
:109EF0000F4944600968C0E90218C0E904769DF87A
:109F0000040089F801009DF8000000F067F81420B3
:109F1000FFF7F6FB2846D4E70820D2E70F46D8E73C
:109F200004259DF8000000F059F8F3E70C2A002002
:109F3000041501400649897839B130B1416921B130
:109F400000210174022103F055BD08207047000074
:109F50000C2A002010B501460C48FFF75DFF0400F5
:109F600011D10B4802F0E6FF68B9094907480C39DE
:109F7000FFF747FF38B9064901220C3901F1080003
:109F800001F068FF0446204610BD0000282B002089
:109F90008825002030B5EFF3108172B60D4A946821
:109FA000012324B10370002900D162B630BD936053
:109FB0004FF0E023D3F88051074C25401560C3F8DB
:109FC0008041D3F8844154605A17C3F88421002299
:109FD0000270E8E7382B0020FC06FFBD0B498A68B9
:109FE000002A11D000280FD1EFF3108072B60B6851
:109FF0004FF0E022C2F800314B68C2F80431002271
:10A000008A60002800D162B670470000382B00201B
:10A0100070B51500044609D00020286034B12068CE
:10A0200020B1A079800703D0072070BD0E2070BD3D
:10A03000084600F00FFBC0B2142804D021798142F9
:10A0400003D8042070BD052070BDE288216800FBA4
:10A0500002102860002070BD2DE9FC4700251788FC
:10A060000646158090F82D001446894630B13A46D0
:10A070002146484600F002FB051E09D1B0784FF09A
:10A080000C0A18B32088C846001DB84202D95046B1
:10A09000BDE8FC87684679DF0028F9D120880321D4
:10A0A00008F8001020881921401C80B2208008F890
:10A0B00000102088401C80B2208000EB0801BDF811
:10A0C000000003F0DCFD218808442080F0780222A3
:10A0D000C8B1218896F9033001F1030C4846BC450C
:10A0E000D5D8425421884FF0010C491C89B22180F7
:10A0F00000F801C02188491C89B2218009F801308B
:10A100002088401C20807068B8B1218890F9003008
:10A1100001F1030C4846BC45B9D8425421880A22B3
:10A12000491C89B2218042542188491C89B221806E
:10A1300009F801302088401C2080308950B1CDE9D9
:10A1400000474B460622022106F1080003F060FE9C
:10A15000051E9DD1308A50B1CDE900474B460722FC
:10A16000032106F1100003F053FE051E90D1308B41
:10A1700050B1CDE900474B461522142106F11800D5
:10A1800003F046FE051E83D1306A30B13B462246BD
:10A19000494600F06EFF051EDBD1706A30B13B46C8
:10A1A0002246494601F070FB051ED2D196F82C00DC
:10A1B00038B13B4622464946304603F09FFA051E19
:10A1C000C7D1307838B13B4622464946304601F087
:10A1D000E1FB051EBDD128465AE718B5044600200C
:10A1E000ADF8000013466A46204600F006F8002845
:10A1F00002D0BDF80000204418BD70B588B182B10E
:10A200000024158803E0065D641C3444A4B2A54212
:10A2100003D8061976789E4201D08C42F3D38C4243
:10A2200001D3002070BDA11C1180005D401E80B2D2
:10A2300070BD80F8301070472DE9F0410D000446E4
:10A2400006D02CB195F87A000026012803D006E04C
:10A250000E20BDE8F08195F89800012829D0D5F8A6
:10A26000A000042825D0D5F89C00042821D04FF068
:10A270000108A6702C2205F17801201DFFF7F6F8E1
:10A2800084F83060D5F8A4006063D5F8A800A06316
:10A290004FF6FF70A4F8A80004F19400C4F8A400DD
:10A2A000C4F8AA60A4F8AE6084F8B060207810B159
:10A2B00004E00720CDE7FF2084F8540004F15501A5
:10A2C0001F27C4F89410A4F8987004F19802284647
:10A2D000FFF7C2FE0028BCD115F13C0F0ED004F1EF
:10A2E0007401C4F89C10A4F8A07004F1A00205F158
:10A2F0003C00FFF7B1FE0028ABD103E0C4F89C603E
:10A30000A4F8A06084F85180208BA4F8480084F859
:10A310003C80266484F8506060696064454604F1BE
:10A320003C02002104F1540072DF002891D1257015
:10A330008FE710B50288102A1BD0112A20D0262AB8
:10A340001DD1007A0C46012801D0022817D1A0782F
:10A350000521401CB0FBF1F201FB1201204600F088
:10A3600035F800280BD0A16B002908D0BDE81040BB
:10A370000847C27B012A02D18088A1F8A80010BD3D
:10A380000C46002184F8B2108088B4F8A8108842E6
:10A39000F5D120790028F2D10121DFE710B50C4674
:10A3A000022801D0032810D1607800280DD00020A9
:10A3B0006070A178204600F009F8002805D0A16B54
:10A3C000002902D0BDE81040084710BD2DE9F05F1C
:10A3D000044600780F4638B1A770002001F044FE13
:10A3E000012620B16670FBE00820BDE8F09F002543
:10A3F000C4F8AA50A4F8AE5084F8B050A07910B1B7
:10A40000A078012806D0E07968B1A078012801D0B1
:10A41000022808D1616B21B184F8B1600820884717
:10A4200001E084F8B15004F1AB0100200A5C0AB1EC
:10A43000304603E0401C0628F8D300204FF0020805
:10A440004FF0030A4FF0040B012F06D0022F0CD05F
:10A45000032F0FD0042F15D110E0A17929B194F862
:10A46000241011B908B130460DE0E17911B108B1FD
:10A47000404608E0207A08B1504604E0607A08B10E
:10A48000584600E02846A070616B41B1032801D016
:10A49000042804D1607910B194F8B200A0B184F816
:10A4A000B35004F13C0018210746FEF7F8FF04F111
:10A4B0002C0084F83C60814602F030FF58B194F8DB
:10A4C0002C0084F8510008E084F8B45084F8B3609C
:10A4D00007208847E5E784F8516094F8240050B1DC
:10A4E000484602F01BFF20B194F8280084F852007F
:10A4F00001E084F8526084F85050A27804F1AA0177
:10A5000004F19409052A4DD2DFE802F06C030F1B19
:10A51000320084F83160C4F8A450C4E9101584F8FE
:10A520003C808020A4F848003EE084F8318087F821
:10A5300000A0228ABA81C4F8A4507960E168B960A9
:10A5400032E06069B860208BB8813D4684F83CB049
:10A55000204603F027FC40B185F8148004212046F2
:10A5600000F059FEF0B9052115E084F831A017E09C
:10A57000E069B860208CB8813D4684F83C60204694
:10A5800003F010FC50B185F814800421204600F03F
:10A5900042FE38B9062184F8311001E084F831B068
:10A5A000C4F8A490A078B0B13A4604F15400D4F8AD
:10A5B000A41072DF00287FF418AF94F8301094F8DC
:10A5C000540073DF0028F6D1042294F854100120BF
:10A5D00077DF0028EFD1616B11B194F83100884723
:10A5E000002002E784F83150F5E7000070B5040060
:10A5F00012D001461C221448FEF738FF1248134DB2
:10A600000560206850B17ADF002806D12068016813
:10A6100029604068686005E00E2070BD0B487BDF54
:10A620000028FAD108484FF6FF711438084A20F87C
:10A63000041B0549343901600021FFF7FBFB0028AA
:10A64000EBD0032070BD0000E42800204C25002042
:10A650003DDD010010B5044600F006F808B12046C3
:10A6600010BD142010BD0000142801D30020704735
:10A670000146014801F0FDB9042900207CB50546DA
:10A6800008880C460930904201D90C207CBD6846F0
:10A690006DDF0028FAD121880820685420881B210A
:10A6A000401C80B2208029542088401C80B2208029
:10A6B0002844DDF801100160BDF805108180208874
:10A6C000801D80B220809DF80010490800D0012133
:10A6D00029542088401C208000207CBDF8B5294DDD
:10A6E00002880446AE88212A37D011DC26484FF074
:10A6F0000301102A008801EB004013D0112A25D055
:10A70000132A29D100231A46852130467FDF17E01E
:10A710003B2A32D0522A2AD0562A1DD180881321B2
:10A7200076DF0DE019A101F049FF072000F0B4FA2F
:10A7300008B1FFF75BFBA188A980174801F0CEFAAA
:10A74000002809D0BDE8F840FFF750BB13A101F085
:10A7500035FF4FF6FF70A880F8BD00200090A0885C
:10A7600069468FDF0028F7D0FFF740FBF8BD0023D4
:10A770001A4619463046B1DFE2E78088132176DFBA
:10A78000DEE70000082500204C260020436F6E6E97
:10A79000656374656400000080270020446973636A
:10A7A0006F6E6E65637465640000000010B51A4C2E
:10A7B0000188606810290ED011292BD1401E6060DD
:10A7C00028D1FFF77CFA002824D02168002921D065
:10A7D000BDE810400847D0B900210122084600F02A
:10A7E00039FA08B107280FD107220221012000F011
:10A7F00031FA08B1072807D104220221002000F015
:10A8000029FA20B1072802D0216801B18847606881
:10A81000401C606010BD0000442500202DE9F04779
:10A8200001883B4E40F2F3194FF6FF7510291BD0FB
:10A8300011293ED0122954D0502946D1C188F2891D
:10A84000841D914241D1618902293ED186883046DA
:10A8500000F038FD050038D004F10C0000F042F99A
:10A86000A8B3294630464EE0C17B878804460129BB
:10A870002BD1A846284600F025FD050017D02F80D3
:10A8800000202872234843464A460168C5F80A104A
:10A890004068C5F80E0004F1100105F10A0000F04F
:10A8A00094FD6872F08900280FD129462AE004201F
:10A8B00013E0808800F006FD040006D06068FFF712
:10A8C00039FB08B102F0EAFE2580BDE8F087FFE71A
:10A8D0006868FFF72FFB0028F7D0BDE8F04702F0CB
:10A8E000DDBE87880646384600F0ECFC0400ECD05C
:10A8F0002B464A4606F1080104F10A0000F065FD06
:10A90000607221463846BDE8F04700F0F9BB000010
:10A91000E42800204C2500202DE9F04F07468588CB
:10A9200002883D48012197B08346102A09D0112A98
:10A9300049D01A2A6CD1387AB1EB101F45D20122C6
:10A9400044E0354C083CA068C0430B9061680BA8FC
:10A9500001F0B0F80B990CA800F06CFB2C220CA9AC
:10A960006846FEF783FD0026E946A04610E000BFDA
:10A9700009EB46005FF00004B0F804A008EB840087
:10A980005146001D01F06AF8641C1D2CF6D3761C9C
:10A990000098B042ECD8142D05D317B00420BDE8C0
:10A9A000F04FFFF723BA2946584601F06DF82946C3
:10A9B00008F1040001F068F8F87B012828D0164857
:10A9C0002946001D15E029461AE000220221B1EBBC
:10A9D000101F01D2012600E000260F49083901F1BD
:10A9E0001000041D294682B101F04EF836B1294607
:10A9F000204617B0BDE8F04F01F046B82946204682
:10AA000017B0BDE8F04F01F029B801F027F8F5E7DD
:10AA100017B0BDE8F08F00000829002030B5144BB6
:10AA20000D4604000FCB85B08DE80F001ED0EDB1B0
:10AA30002868A0612146684662DF002814D120788A
:10AA40008DF812000120ADF81000A21C04A9A8DFA7
:10AA5000002809D12946204602F04CFD002803D1E8
:10AA60002946204603F024F805B030BD0E20FBE750
:10AA70007CDF010070B588B00446002924D0002C8A
:10AA800022D008462188102920D0502924D05729C7
:10AA90001AD10546A188406906AAFFF7B9FA00282D
:10AAA00012D1069E307800280ED018216846FEF795
:10AAB000F6FC01208DF800000195A088ADF8080093
:10AAC0000396A9696846884708B070BD08B021465A
:10AAD000BDE8704002F014BB08B02146BDE87040EC
:10AAE00002F0DABB007800F0010070470149085C11
:10AAF000704700003CDF010007490B5C4FF0A041AC
:10AB0000D1F804250120984020EA0203C1F8083555
:10AB10001040C1F80C05704738DF01000249085C9D
:10AB2000012101F048BB000038DF01000249085C48
:10AB3000002101F040BB000038DF01000649095C3C
:10AB40004FF0A040D0F80405C84010F0010000D03C
:10AB5000012080F00100704738DF010010B50024AB
:10AB60002046FFF7DBFF641C042CF9D310BD10B5A1
:10AB700000242046FFF7DAFF641C042CF9D310BD33
:10AB800010B50246064B4FF0FF3000215C5C94424A
:10AB900001D1084610BD491C0429F7D310BD00009F
:10ABA0003CDF010010B5002000F05EF908B1062876
:10ABB00006D1012000F058F908B1062800D1002084
:10ABC00010BD00002DE9F0470D468146FFF7D8FF84
:10ABD0000446042836D2DFF874801B481C4EA8F1C6
:10ABE0000C0725B3012D0ED0022D2BD104EB440010
:10ABF00030444578002D25D0B968002922D0284658
:10AC0000BDE8F047084704EB4401755C0E447178D9
:10AC100049B10E4A4FF40041093A8068FFF746F9FE
:10AC200008B987F80390B17808F80410E2E7806863
:10AC3000FFF780F904EB4401314418F804008D78E3
:10AC4000A842D7D0BDE8F08740DF010040250020B2
:10AC50008428002070B50023042810D20D4D00EB8D
:10AC60004004012A02D101290CD00022094E00EB38
:10AC70004000304461B1012906D0022906D00723E3
:10AC8000184670BD0E30C2B22A55F9E74270F7E798
:10AC90008270F5E784280020044A014600201279DA
:10ACA000D20702D0084600F003B8704734250020D0
:10ACB0002DE9F05F6A4C054600266078B34618B16E
:10ACC00084F801B000F0A4FB664F4FF47A694FF4AA
:10ACD000C87A4FF00108182D62D2DFE805F0AC0CFD
:10ACE0000C31404D62676B746B74BE7D7D7D7D7DE4
:10ACF000ACAFB2B5BEBE0020FFF720FF00284FF07A
:10AD0000000008D0FFF70AFF022D02D14FF4E160E6
:10AD100008E0484606E0FFF709FF022D01D1C820F0
:10AD200000E05046410CC0034FF4FA72801841F124
:10AD30000001257052000023FEF754FB01462AE073
:10AD40000020FFF7FBFE00284FF0000004D0FFF7C3
:10AD5000E5FE4FF44870E5E7FFF7E8FEDFE7002087
:10AD6000FFF7ECFE00284FF0000002D0FFF7D6FE00
:10AD7000CFE7FFF7DBFED4E70020FFF7DFFE002878
:10AD80004FF0000002D0FFF7C9FE01E0FFF7CEFE52
:10AD9000257041F69A1100223868FFF787F80646B9
:10ADA00046E00020FFF7A8FE257008E0002051E0F3
:10ADB00025703DE084F801800120FFF79DFE002210
:10ADC00040F6CD41E8E784F801800120FFF794FECA
:10ADD00000224FF48041DFE77868FFF7ABF80646C2
:10ADE000D5F1110000D02EB10220FFF797FE84F8B4
:10ADF00002B01DE0012816D980B2C8214843C1170E
:10AE0000C90341EA5041C0034FF4FA72801841F17E
:10AE1000000152000023FEF7E5FA0146002278689F
:10AE2000FFF744F806460220FFF780FE84F8028010
:10AE30003046BDE8F09F00F0EBFAB9E700F0E8FA21
:10AE4000B4E700F0E5FA04E000F0E2FA0020FFF7D2
:10AE50006DFE0120FFF76AFEAAE7FFF788FEA7E76D
:10AE60003425002040DF0100012103F038B8000044
:10AE70002DE9F8430546861C00208DF80000904619
:10AE80000F464FF001096846FFF784F81B4C206815
:10AE90003860D4E90001401AA16804F21C47081A7E
:10AEA0000EE00121384600F0FFFD00F04DFB0146A9
:10AEB000384600F0F9FDD4E90001401AA168081AEB
:10AEC000401C8642EDD8B8F1000F03D0052065F391
:10AED000891002E0062065F39F50A26821681140A6
:10AEE00004EB8101C8602068304420609DF80000B8
:10AEF000FFF774F84846BDE8F8830000F02C002006
:10AF000030B482680468531C8360A154D0E90112F4
:10AF10008A4202D330BC00F0ADBF30BC70470000A5
:10AF2000034803C8814201D10120704700207047C7
:10AF3000F02C00200249084490F9300070470000CE
:10AF40008C29002070B5084C050009D01034216808
:10AF5000002907D008682060496828468847F6E736
:10AF60000834F4E770BD000078290020054A01216B
:10AF700020B1012805D19170FFF7E4BF5170002086
:10AF8000FAE77047782900202DE9F05F26484168EC
:10AF9000F1B3DFF898B00E688146DBF800408768AF
:10AFA0008078E11B21F07F45ED1CB0B9DFF880808F
:10AFB0004FF48030C8F84403C8F804031120FEF7AA
:10AFC00089FB1120FEF791FB4FF0010AC8F800A0A1
:10AFD0002F2001F057FF89F802A0B54200D2354674
:10AFE000124BE8193C3320F07F401860DBF800106A
:10AFF0005A46091B21F07F41001B20F07F40C91CED
:10B0000081420FD9106818602F2001F03BFF00E04B
:10B0100004E0BDE8F05F1120FEF772BBBDE8F05F11
:10B0200002F04ABABDE8F09F6825002004150140EF
:10B030000010014073B58CB00646002000900D98BA
:10B0400080B100246D4621460DA800F012FD30B1FC
:10B05000009805EB400084800098401C0090641C20
:10B06000142CF0D32C2269463046FEF7FFF90EB0BF
:10B0700070BD2DE9F04117880646B81D14460D46EF
:10B08000984202D90C20BDE8F081318807220629B8
:10B090000AD34FF4486C4FF6FF73614501D99942CA
:10B0A00002D17088062801D21046ECE7604501D92C
:10B0B0009842F9D1994203D0984201D08142F3D805
:10B0C0000520E85520881221401C80B22080295498
:10B0D0002088401C80B220804119308802F0CFFDCA
:10B0E0002188084480B220804119708802F0C7FD91
:10B0F0002188084420800020C5E7FEF777BE0000C5
:10B1000038B54A7A0F4B62B100220A725969002998
:10B1100006D001228DF80020ADF80200684688476D
:10B1200038BD0A7A62B19B684C68024619462046CF
:10B13000FEF7BCFE0028F3D0BDE8384002F0AEBAFE
:10B140005B68F1E7E428002010B50021024800F018
:10B15000BCFC80F3100010BD0C3100200E4910B56E
:10B160000A784C780023A24212D0521CD2B20A7044
:10B17000022A00D10B70084A0B780C3252F82320B7
:10B1800002608868104420F07F408860012010BD74
:10B190000360002010BD00006825002030B5044683
:10B1A000006887B00D46806800281FD018216846C7
:10B1B000FEF775F90195A0680590207910B1012876
:10B1C00010D107E001208DF8000020690290E068AE
:10B1D000039005E002208DF80000E0680003029073
:10B1E00060690490206881686846884707B030BD70
:10B1F000826883881A4003689A5C0A708168491CD7
:10B2000081607047C26883881A4003689954C16896
:10B21000491CC160704770B50D460446B0F89810DF
:10B22000D0F894000122FEF7D8FF00B1057004F1B8
:10B230003C0204F1940104F1540072DF70BD00007F
:10B240000B484A8883889A4211D10A88A2F5206364
:10B25000773B0CD18988C91E8AB2C2800548032178
:10B260001346008801EB004003A101F0B2B970471A
:10B27000082500204C26002044617461206C656E16
:10B280002069732073657420746F203078255828E6
:10B290002564290010B50949094800F097FC08B158
:10B2A000FEF7A4FDF721064800F084FC002803D037
:10B2B000BDE81040FEF79ABD10BD000041B201008C
:10B2C000702700200146034802888A4200D00020EF
:10B2D00070470000D02800202DE9FC5F0E00834657
:10B2E000DDE90C47C6F1000098469246814600D43D
:10B2F0000846012503E000BF90FBFAF06D1C5045A5
:10B30000FADAA84500D9454624B1002E01DB7807BA
:10B3100000D5641EB80702D5B8F1000F0AD0F807AF
:10B3200008D13CB1A54205D220215846641EFFF742
:10B33000E7FDF6E7002E02DA4E462D2102E07807FF
:10B3400003D52B215846FFF7DBFD07F00300022849
:10B350000BD1B8F1000F08D13CB1A54205D2302184
:10B360005846641EFFF7CCFDF6E7CDE9004743469B
:10B3700052463146584602F087FCBDE8FC9F024623
:10B3800000201268930702D0530702D47047500779
:10B3900014D502F00300012802D002280CD105E0E8
:10B3A000C2F383100B68801C184404E00223086871
:10B3B00003EB92521044086001207047086800EBCC
:10B3C0009253C2F38910401CEEE7F0B58488A518AB
:10B3D000944200D82246A41AC288D6189A4200D8AD
:10B3E0001346D21A4B880788BB420CD3408883424D
:10B3F00009D88888A04206D3A84204D8C8889042B9
:10B4000001D3B04201D90020F0BD0120F0BD000001
:10B410000A4810B5807860B1002401E0022C06D003
:10B420002046FFF77BFB641C042CF7D310BD0324DC
:10B43000F6E7BDE81040FFF791BB0000342500207F
:10B44000F72101801721418000210171417170476E
:10B450002DE9F047394E002780463D46DFF8E09061
:10B46000D6F804A057E003D00446D0F81C8035E09D
:10B4700099F8002002EB4201521CD2B289F8002058
:10B4800009EBC10199F80230091D9A4201D189F8EE
:10B49000005048680A780446012A12D0022A02D0D5
:10B4A000032A3BD108E002F075FA00B101272574A8
:10B4B00034E00574C06900E070680028F9D170605C
:10B4C0002CE0207C50BB88686060C868A060086978
:10B4D000E0604869A061F07800B165606268B168B9
:10B4E000184B501A20F07F40984202D2A1680844BD
:10B4F00006E0881AA16820F07F40814202D9081A2C
:10B50000206000E0256065600120A5602074204671
:10B51000E56102F021FAB8F10000A4D199F8001019
:10B5200099F801008142A3D117B97168514502D041
:10B530000120BDE8F0870020FBE70000682500201F
:10B540000C2A0020FFFF7F002DE9FF410026234841
:10B5500000F0A7FA2148001F074600F0A2FA204C8D
:10B5600060680090A56800E000986946284004EBF8
:10B5700080000C30FFF703FF0028F5D101AA0099E5
:10B5800001EA050304EB8303491CDB6842F8203021
:10B59000401C00910228F2D3019800F0030001281A
:10B5A0000BD0022810D10198032101EB9050009993
:10B5B000BDF80A6001EB900005E00198BDF80A6053
:10B5C000C0F3831008440090384600F067FA08B1D1
:10B5D0000098606004B03046BDE8F081083100207A
:10B5E000F02C0020894E8EB0351D6913002001F02B
:10B5F0004FF808B1FEF7FAFB00F0C2FEFEF72CFC94
:10B6000008B1FEF7F3FB01F061F908B1FEF7EEFBBC
:10B6100001F01EFB08B1FEF7E9FB002403A901209D
:10B62000039401F07DF908B1FEF7E0FB03A801F0F7
:10B630001FFA08B1FEF7DAFB9DF81C0074A120F098
:10B640000F00401C20F0F00010308DF81C000D227F
:10B6500007A87CDF08B1FEF7C9FB02941020ADF803
:10B6600008003C200394ADF80A00ADF80C404FF4FC
:10B67000C870ADF80E0002A87ADF08B1FEF7B6FB7D
:10B68000FFF708FE6648069006A9664800F031FB01
:10B6900008B1FEF7ABFB6448039003A96348FFF7CA
:10B6A000BDF908B1FEF7A2FB296830688DF80110DA
:10B6B0000A0A8DF80220090C8DF803108DF8040099
:10B6C000010A8DF80510C02141EA10408DF80600EE
:10B6D0009DF8000020F0FE00801C8DF800006846F8
:10B6E0006CDF08B1FEF782FBFEF704FB1C2102A809
:10B6F000FDF7D5FE4FF42030CDE902404FF4702025
:10B7000004904B48079003254A488DF81450089040
:10B71000ADF816408DF8184002A8FEF767FF08B193
:10B72000FEF764FB44484FF0A046C0F800470120F4
:10B730003FDF424842A1008805EB004000F03EFF99
:10B74000FEF708FB494A01214948FEF773FB08B19F
:10B75000FEF74CFB464D09AB05F1100007C883E826
:10B76000070009A8434901F039FC08B1FEF73EFB88
:10B770002E48093801F0ECFB08B1FEF737FB01F069
:10B7800009FC00224FF480412868FEF78FFB08B1C6
:10B79000FEF72CFB254DDFF88C8001270C3D08F1CE
:10B7A0000C0800BFD6F81005400F10F0010F02D0B2
:10B7B000687890B123E0287808BB2F706C7098F8F7
:10B7C000540074DF08B1FEF711FB06222AA10CA871
:10B7D0007CDF0EE0FEF70AFB0DE06F702C7098F82E
:10B7E000540074DF08B1FEF701FB062224A10CA867
:10B7F0007CDF0028EED1FEF77DFAFEF7ABFA01F010
:10B80000D7FB00F0CBFD01F075F8CBE780100010FE
:10B810004E6F726469635F4E4F52444943000000AB
:10B8200009C901008027002031D001001425002023
:10B83000E5D00100FBB00100740000504C26002050
:10B840004465627567206C6F6767696E6720666F15
:10B85000722055415254206F766572205254542004
:10B86000737461727465642E000000001BDF0100B8
:10B870001CDF010019DF01004E525020563000003D
:10B880004E5250205631000070B5144682880E4644
:10B8900005462088111D0144921C994201D8FE2AB8
:10B8A00001D90C2070BD521C32542088FF21401C4D
:10B8B00080B2208031542088401C80B220808119C1
:10B8C000288802F0DCF92188084480B22080AA8808
:10B8D00042B1A96841B13044FDF7C8FD2088A9886C
:10B8E00008442080002070BD072070BD2DE9F0477E
:10B8F000C7880446181D16468946B0FBF7F1B0FB11
:10B90000F7F207FB12009A193A44D21CB2FBF7F285
:10B91000DDF820A001E02468491E0029FBD13D1A72
:10B920008846B54216D818E0BAF1000F05D02118A4
:10B9300009EB08002A46091D04E0204409EB080130
:10B940002A46001DFDF792FD00202468761BA844BE
:10B95000B74201D9354600E03D46002EE4D1BDE8AE
:10B96000F087000030B5024659B100F0BDFE00215D
:10B97000074C09E004EB810315685B88AB4202D1F8
:10B980001160002030BD491C8142F3D3052030BD39
:10B990001C260020F8B50F460178144605460129FB
:10B9A00001D1687830B12088821C9A422DD80129B3
:10B9B00002D006E00720F8BD69780144891C99424D
:10B9C00023D8181A801E86B2ADF800602188B81CF2
:10B9D000084469467DDF0028EDD12878022805D18A
:10B9E000BDF80010B14201D809210AE00821012860
:10B9F00005D16878B04202D8ADF8000001E0ADF89A
:10BA00000060BDF80000FE2801D90C20F8BD228896
:10BA1000401CB8542088401C80B2208039542088B3
:10BA2000401C2080BDF80010084420800020F8BD94
:10BA300010B50A8849888A4203D1FDF72DFC012000
:10BA400010BD002010BD70B50C460546FDF707FC83
:10BA5000002802D061882868084470BD01F01F03E7
:10BA600001229A40D243490900EB8100114600F0BF
:10BA700021B84A0950F8220001F01F02012191402B
:10BA8000084000D00120704701F01F0301229A40B6
:10BA9000490900EB8100114600F01CB8002100F0BC
:10BAA0000FB8012100F016B808B56A46FDF749FC49
:10BAB000009808BD08B56A46FDF729FC009808BD46
:10BAC00008B56A46FDF723FC08BD08B56A46FDF7D0
:10BAD00005FC08BD08B56A46FDF70CFC009808BDDA
:10BAE00008B56A46FDF73AFC009808BD38B504462B
:10BAF00000258DF800506846FEF74CFA2168626810
:10BB0000086890420ED9401E08600178A38AE26856
:10BB100001FB0325227A2168101AC0B20A798242F9
:10BB200000D208719DF80000FEF758FA284638BD8B
:10BB300038B5054600208DF800000C466846FEF733
:10BB400029FAE868A98A201AB0FBF1F12A6810687E
:10BB5000431C136001709DF80000FEF73FFA38BDEA
:10BB600010B530B1017A42680368891AC9B21A6007
:10BB700006E00E2010BD03681A68541C1C6011708A
:10BB8000491EC9B2F7D2006800210171084610BDF4
:10BB9000C20800F007030120895C98400840704704
:10BBA00010B5C20800F00703885C01249C402043C4
:10BBB000885410BD28B1A1F11702E12A03D3072050
:10BBC00070470E20704701800020704710B560B1AB
:10BBD000C160F72120F8021B20F8021BFB2100F8AE
:10BBE000021BFFF72DFC002010BD0E2010BD000031
:10BBF0007CB50C468188002933D102880025102AA3
:10BC000006D0112A09D03A2A0BD0552A2ED129E084
:10BC10000146204601F0AAFA28E0A01DFFF710FC1B
:10BC200024E02246408934F8063F834200D8184673
:10BC30006080172800D217206080D06878B16079C2
:10BC400068B1174BD3E90003CDE90003ADF802104A
:10BC50006088ADF80400D36869461046984765715E
:10BC600025717CBD0146204601F0C2FAA07A002869
:10BC7000F7D02846E188A5DF012670B11128F0D061
:10BC800001F0B6F80246074807A1008802B006EBAB
:10BC90000040BDE8704000F095BCA572E6727CBD26
:10BCA0006CDF01001C26002073645F626C655F67B7
:10BCB000617474635F65786368616E67655F6D74F6
:10BCC000755F726571756573742829207265747566
:10BCD000726E65642025732E0000000020B102788A
:10BCE000DE2A03D0082070470E20704741800020D4
:10BCF000704760B159B10278DE2A0AD00968416004
:10BD0000DE2101704FF6FF714180002070470E2048
:10BD10007047082070477FB5054600294DD0002D9B
:10BD20004BD008780C46DE2847D1A8886188884225
:10BD300002D1204602F042F82888012825D00228A6
:10BD40003BD011283AD0512837D135F8040F6188FB
:10BD5000884232D1A978A81C02292ED1017A04295F
:10BD600003D0062901D0052927D100210091022204
:10BD70008DF8002001914FF4C07202910391ADF84B
:10BD80000420007A05280FD010E0297A20460129E6
:10BD900013D1A988428891420FD10121017204B0C8
:10BDA000BDE8704002F00AB8ADF804102888694672
:10BDB000B0DF002801D0616888477FBDA88861880E
:10BDC0008842FAD14FF6FF7060807FBD00F180405D
:10BDD0000068002800D00120704708B500F18040BD
:10BDE000002101600068009008BD000070B50B4C98
:10BDF000207808B185250FE00020A06060602061F8
:10BE0000E060074801F020F8054600F07BFF08B924
:10BE100001F004F801202070284670BD7829002028
:10BE20006DAF010038B500258DF800506846FEF76B
:10BE3000B1F8074CE068401EE060E06810B901F01E
:10BE400013F8A5709DF80000FEF7C8F838BD000093
:10BE500078290020001D01F025B80FB408B503991A
:10BE6000002904D004AA00926A4600F00FF801B03D
:10BE70005DF814FB10B582680446002A05D0D4E9A9
:10BE80000403216898470020A06010BD2DE9FC47FD
:10BE900091460C00804676D014F8011B39B1252953
:10BEA0000ED04046FFF72CF820780028F4D198F8FF
:10BEB0000C00002867D04046BDE8FC47FFF7DABF1A
:10BEC0000020012221782B291BD02D2902D03029D6
:10BED00008D102E040F0010001E040F00200641CE3
:10BEE000002AEFD100252A290ED02178A1F13002B5
:10BEF0000A2A11D205EB850201EB4205641C303D94
:10BF0000F1E740F00400EAE7D9F800100B1DC9F88A
:10BF100000300968641C0D44217800232E290BD1C0
:10BF200014F8011FA1F130020A2A05D203EB8302A3
:10BF300001EB4203303BF3E76C290DD068290BD0AD
:10BF4000692921D00BDC252918D0582931D0632943
:10BF50000ED0642915D117E014F8011FECE7702901
:10BF600069D0732932D075291BD0782909D120E0F6
:10BF7000D9F80000011DC9F8001001784046FEF70D
:10BF8000BFFF641C90E76CE0D9F800100A1DC9F8E7
:10BF900000200968CDE900500A224046FFF79CF9CD
:10BFA000EFE7D9F800100A1DC9F8002009680A2235
:10BFB00006E0D9F800100A1DC9F80020096810220F
:10BFC000CDE90050404601F05FFEDAE7D9F80010F5
:10BFD00000270A1DC9F800200E68C00705D112E02D
:10BFE0004046761C7F1CFEF78BFF31780029F7D185
:10BFF00004E0202140466D1EFEF782FFBD42C0D9FD
:10C00000002DF6D1BDE74EB13046FDF753FA074695
:10C0100004E0202140466D1EFEF772FFBD4206D9A6
:10C02000002DF6D103E04046761CFEF769FF31781B
:10C030000029F8D1A5E7D9F80000011DC9F80010C2
:10C04000056830214046FEF75BFF78214046FEF749
:10C0500057FF08200021CDE90001034610222946A0
:10C06000B0E7BDE8FC8700002DE9F04128B1016888
:10C0700019B1C969BDE8F04108470D4D0D480024CC
:10C08000461B14270DE000BF04EB840005EB800085
:10C09000016829B1C969884710B10120BDE8F08164
:10C0A000641CB6FBF7F0A042EED80020F6E70000D3
:10C0B0000000000000000000044801214174007AE3
:10C0C00008B100207047012070470000D02B0020ED
:10C0D000012801D0032808D10449002201284A740C
:10C0E00000D00020087401F097B97047D02B0020D1
:10C0F00070B50246022801D0032A45D1234C207A8C
:10C10000002841D0012833D0022831D12048002313
:10C11000022A006802D0032A2AD11BE0E3600179D9
:10C1200011B1012924D10DE0D0E90565711B4FF44F
:10C130008056B14200D33146294481614569A94204
:10C140000ED015E00169491C0161426991420FD18D
:10C15000237213E0E168491CE160082908D9E36013
:10C160002372022A0AD00D21FFF718F801F04AF9CC
:10C17000607C28B1BDE8704000F0CABD0021F3E743
:10C18000BDE8704001F048B970BD0000D02B002020
:10C19000A42500204FF0A04202EB8000D0F8002739
:10C1A00022F44032C0F80027D0F8002742EA0141CB
:10C1B000C0F80017704701224FF0A043824011B130
:10C1C000C3F808257047C3F80C25704718B5084B0D
:10C1D0006C4601441B68009306E000BF54F8203011
:10C1E000D3F81035401C08C28142F7D818BD0000B2
:10C1F0008CDF0100034908B5084400210160006894
:10C20000009008BD0060004002494058012800D05D
:10C21000002070470060004030B5124B01460020FE
:10C22000D3F81044224609E0157A854205D1401C16
:10C230000A28F7DB4FF0FF3030BD5268002AF3D1F7
:10C24000421CF9D00872D3F810242AB152684A600F
:10C25000D3F81024516030BD0022C3F810144A6096
:10C2600030BD0000F02C00207047FDF7A3BA7047E6
:10C2700008B5034A00924023024A00F005F808BDC1
:10C28000ADD60100F02B0020F0B595B01C46154648
:10C290000F4608461A9E00F0F7FA182109A8FDF784
:10C2A000FEF80E96CDE909540023082203A938466A
:10C2B00000F0FFFA05980690BDF81000ADF81C00DC
:10C2C000BDF81200ADF81E0000208DF82100039883
:10C2D000082600F00300012802D0022818D032E01E
:10C2E00003983346850AC0F3C2008DF820000398F6
:10C2F0000FA9C0F38314A200384600F0DAFA09A8A7
:10C30000009006AB22460FA9284600F019FA1AE061
:10C310000398840DC0F3C2008DF82000082C01D2D0
:10C32000254600E0082533462A460FA9384600F086
:10C33000C0FA2E44641B09AB06AA29460FA800F0D8
:10C3400051F9002CEAD1384600F0A4FA15B0F0BD3E
:10C350000A4A012902EBC00007D0022907D00329AD
:10C3600007D0042907D0002070470220704704201E
:10C3700070470079704740797047000040E901003C
:10C3800010B5FFF772FF04210348FFF745FF02498C
:10C390000120487210BD0000B82500202DE9F04FA3
:10C3A0008DB0FEF7BDFD18B100200DB0BDE8F08FD7
:10C3B0007A4C4FF0000BC4F818B4BFF34F8F60688D
:10C3C0000290A568D846284004EB800008E0216868
:10C3D0000298814201D86160E6E7284004EB8000C2
:10C3E0000C3002A9FEF7CBFF0028F0D105AA029974
:10C3F00001EA050304EB8303491CDB6842F82030A3
:10C40000401C02910228F2D3059800F00300022894
:10C4100002D001284ED0A9E005985022810D89460E
:10C42000B2EB905F00D850210E4666F39F50059006
:10C4300008315B4800F0DFF9070079D000F024FAFA
:10C440004346082205A9384600F039FA029908F156
:10C45000080A2940681A8000001D864223D94F4DE2
:10C460000C3530B1C2B204EB8101301A90460C3168
:10C4700004E02946F2B2002590462846C6B253464B
:10C48000384600F01CFA0AEB08032DB13246294663
:10C490004FEA070000F013FA029909F1030001EBDB
:10C4A000900002903BE004EB81015346324638464F
:10C4B0000C31EFE70598C0F38310062800D306205F
:10C4C000059960F38911C1F38310801C05918100E7
:10C4D000334800F090F9070048D000F0D5F9434602
:10C4E000082205A9384600F0EAF908F108080026F4
:10C4F0000FE00298434600EA0501401C04EB81016D
:10C500000290042238460C3100F0D9F908F10408F1
:10C51000761C0598C0F38310B042EAD847B1D4F82E
:10C520001054D4F8180468B1384600F0B3F92FE07D
:10C530001CE0687A012804D12A6828463946126826
:10C5400090476D68002DF4D1384600F0A3F98DF8BE
:10C5500000B06846FDF71EFDD4F8180408B902982B
:10C5600060609DF80000FDF739FD11E0D4F810443B
:10C5700004E021682046896888476468002CF8D167
:10C5800008480221008801EB004007A100F016F8DE
:10C59000FEF7C6FC80F0010007E70000F02C002049
:10C5A000C0E901004C2600204261636B656E647334
:10C5B00020666C75736865640000000000231A46ED
:10C5C00001F044B908B5012300926A4601F03EF932
:10C5D00008BD1CB5CDE9002302236A4601F036F9F7
:10C5E0001CBD00002DE9F0470E4680461C469246D1
:10C5F00008293ED894F80C90002020731946104664
:10C6000000F0B4FE0025B54206D218F805201AA1A4
:10C610002046FFF722FC03E019A12046FFF71DFC8E
:10C620006D1C082DEFD317A12046FFF716FC00253F
:10C63000B54210D218F80570FCF714FF0068C05D11
:10C6400010F03E0F01D03A4600E02E220EA1204607
:10C65000FFF703FC03E00DA12046FFF7FEFB6D1C76
:10C66000082DE5D301222146504600F061FE84F8F2
:10C670000C90BDE8F08700002025303278000000E3
:10C68000202020007C000000256300002000000026
:10C69000104810B5FF218160002101604160C0F8A1
:10C6A0001814C0F8141480F820140B4800F0F0F8A7
:10C6B00000280DD109480A490A4B401AC108002038
:10C6C00003E000BF23F82000401C8842FAD300207A
:10C6D00010BD0000F02C0020C0E90100C0E90100FD
:10C6E00040E901001C26002002480349401AC00806
:10C6F00070470000C0E9010040E9010013B5684639
:10C70000FFF730F908B100201CBD0248009950F82D
:10C7100031001CBD40E9010070B508480125D0F882
:10C72000104480F8205405E065722168204649686D
:10C7300088476468002CF7D170BD0000F02C002001
:10C740002DE9FF4781460C9D00200C462F7B287366
:10C75000984616462946184600F008FE072E42D293
:10C76000DFE806F004090F161F2A3600494628465E
:10C77000FFF773FB37E0494628462268FFF76DFB59
:10C7800031E0D4E9002349462846FFF766FB2AE05A
:10C79000A0680090D4E9002349462846FFF75DFBD6
:10C7A00021E0D4E90201CDE90001D4E900234946A2
:10C7B0002846FFF752FB16E004F1080007C88DE891
:10C7C0000700D4E9002349462846FFF746FB0AE064
:10C7D00004F108000FC88DE80F00D4E90023494692
:10C7E0002846FFF73AFB00222946404600F0A0FD0C
:10C7F0002F73BDE8FF872DE9F041858A80462D1F04
:10C800004819C01CB0FBF5F0C6B24046FFF76EF900
:10C81000041E19D00020207101206071E5800027DE
:10C820002546761EC4F800800BE04046FFF75EF90F
:10C8300060B16179491C6171286005467F1CC0F8B0
:10C840000080B742F1D32046BDE8F081204600F0D9
:10C8500002F80020F8E72DE9F041457901466B1E0A
:10C86000002201E00968521C9A42FBD30F6801467E
:10C87000002605E038460C68FFF75AF92146761C79
:10C88000AE42F7D3BDE8F0810121001DFFF70CB9DE
:10C89000FFF766B910B504460121001DFFF720F926
:10C8A00010F0FF0F04D12046BDE81040FFF7D3BFC2
:10C8B00010BD38B501240094FFF718F838BD38B51D
:10C8C00000240094FFF712F838BD0000064910B5A7
:10C8D00000204870091D0860BFF35F8F03490448BA
:10C8E00000F042FA002010BDAC250020D0DF01008E
:10C8F000E42B002010B500F005FA08B141DF10BDAF
:10C9000020BF40BF20BF10BDFDF770BA20B1034962
:10C9100009680160002070470E207047A4E1010003
:10C920002DE9FE4306460D460846FFF7EFFF0028B7
:10C930007ED18046CDF80080CDF804800124062009
:10C940008DF80060ADF80400CDF808808DF8024045
:10C95000694620202A6869DF3E4F40B100F048FA5E
:10C96000024638883C4904EB0040FFF72BFECDF827
:10C970000080CDF80480CDF808808DF8014069462C
:10C9800040202A6869DF40B100F032FA0246388858
:10C99000324904EB0040FFF715FECDF800808DF81A
:10C9A0000060F720ADF80200CDF80480CDF80880D3
:10C9B000694623202A6869DF40B100F019FA02466F
:10C9C0003888274904EB0040FFF7FCFDCDF80080D4
:10C9D000CDF80480CDF808808DF8004046466946C1
:10C9E00001202A6869DF40B100F002FA0246388867
:10C9F0001C4904EB0040FFF7E5FD4FF4B0600090E8
:10CA0000019602966946A1202A6869DF48B100F0C4
:10CA1000EFF93988024604EB014313491846FFF742
:10CA2000D1FD0096019602968DF80060694600E0FF
:10CA30000DE0A0202A6869DF40B100F0D9F9024674
:10CA400038880A4904EB0040FFF7BCFD0020BDE830
:10CA5000FE83000054260020A0E70100E8E7010063
:10CA600034E8010000E701004CE70100ACE60100FA
:10CA70002DE9F0410446D0F8008060DF2168194DAF
:10CA8000074641451CD92888022606EB004016A11E
:10CA9000FFF794FD2888424606EB00401EA123685C
:10CAA000FFF797FDF006D0F80C012168800200F135
:10CAB0000050421A288825A106EB0040FFF782FDAE
:10CAC000012467B1384600F093F9024628882AA16C
:10CAD00004EB0040FFF776FD3846BDE8F0812E48B4
:10CAE0000470F9E754260020496E73756666696321
:10CAF00069656E742052414D20616C6C6F63617486
:10CB0000656420666F722074686520536F66744494
:10CB100065766963652E00004368616E6765207401
:10CB200068652052414D207374617274206C6F638C
:10CB30006174696F6E2066726F6D20307825782081
:10CB4000746F20307825782E000000004D617869E0
:10CB50006D756D2052414D2073697A6520666F7244
:10CB6000206170706C69636174696F6E20697320F5
:10CB7000307825782E00000073645F626C655F6515
:10CB80006E61626C6528292072657475726E6564C9
:10CB90002025732E000000001726002030B5154810
:10CBA000ADF5017D0078002821D04FF4FA7500BF63
:10CBB000ADF8005280A9684661DF38B1052816D06B
:10CBC0000DF5017DBDE83040FDF710B96C460A490E
:10CBD0007DA800F0C9F806E0D0E900212046904782
:10CBE0007DA800F0D8F87F980028E1D0F4E70DF593
:10CBF000017D30BD17260020A8E10100F8B5134CD7
:10CC00002078C0B10120A07000F01AFD112814D0C6
:10CC1000022000F02DFD00258DF800506846FDF73C
:10CC2000B9F911DF064625709DF80000FDF7D6F929
:10CC30002EB13046F8BD0820F8BD0020F8BDA57023
:10CC400000F0C0FD032000F013FDF6E714260020DD
:10CC50007CB5204C207808B108207CBD0120A07054
:10CC6000002000F0EDFC112819D0002000F000FD9C
:10CC700019480026006801908DF800606846FDF7AD
:10CC800089F9164901A810DF05000AD0002020709C
:10CC90009DF80000FDF7A2F92DB128467CBD0020CB
:10CCA0007CBD0120F3E7A67066700721162000F016
:10CCB0007EFC08B1FDF79AF80721152000F077FCFB
:10CCC00008B1FDF793F800F099FD012000F0D0FCC9
:10CCD000E5E70000142600203CE10100719D010001
:10CCE0000EB50749684600F03FF805E0D0E90010AE
:10CCF0008847684600F04FF802980028F6D10EBD2C
:10CD000058E1010001480078704700001426002017
:10CD10000548817819B1007818B1FFF76FBF082076
:10CD20007047FFF795BF0000142600201FB5684626
:10CD30004BDF30B1052814D004B0BDE81040FDF73A
:10CD400055B8084901A800F00FF806E0D0E9002125
:10CD50000098904701A800F01EF803980028E6D03C
:10CD6000F4E71FBDC4E10100016009684160AFF351
:10CD7000008010B5D0E900215368994201D100210B
:10CD800004E0D1E90034A34202D01946816010BD0D
:10CD900008314160F0E7816800290BD00268926891
:10CDA0000A44826041684B689A4203D1083141606D
:10CDB000FFF7DFBF704700000C4A10B502F594730F
:10CDC0000EE0991AC91001EBD171491002EBC101B3
:10CDD0000C68844201D90B4602E005D201F1080239
:10CDE0009A42EED3002010BD486810BDF0DF01006C
:10CDF00000B5FFF7E1FF002800D1014800BD0000A9
:10CE0000DCDF01004058002800D00120704708B541
:10CE1000002242504058009008BD000008480068B9
:10CE2000012110F0010F08D14FF0E020E02280F83E
:10CE30000024C0F88012C0F8001102480160704759
:10CE400000E100E0180500400649024600200B7989
:10CE50000BB1852070470A6001220A7100224A71D5
:10CE60007047000054250020044901200860044850
:10CE70000168C1F300410029FAD170470C0000405D
:10CE800018040040002802D001498001084770477B
:10CE900091DF01000121B1EB507F01D101207047EA
:10CEA000002070472DE9F04704460E4600792049DE
:10CEB00000EBC00001EB800517463046FFF7EAFFA4
:10CEC00030B1204600F036F820B11120BDE8F087DF
:10CED0001020FBE76F61AE604FF49076002731467B
:10CEE0002068FFF794FF4FF4AC7841462068FFF7C5
:10CEF0008EFF2068AA686969C0F84425C0F8481503
:10CF0000206801218160686878B9B1464946206887
:10CF1000FFF778FF064641462068FFF773FF064398
:10CF2000F4D000B10F27002068613846CEE700003A
:10CF3000E82900200079054900EBC00001EB8000E2
:10CF40004069002800D0012070470000E829002037
:10CF500038B5044600208DF800006846FDF71AF841
:10CF60000A48816808290AD221704A1C8260084850
:10CF7000026801238B401A430260002400E004246D
:10CF80009DF80000FDF72AF8204638BD5C250020FA
:10CF90000805014004490120C1F804030860034961
:10CFA0000220087070470000000001405C2500204E
:10CFB00010B507490020074C8968074B05E00206B9
:10CFC00003EB9252C2F80046401C8842F7D310BDD2
:10CFD0005C2500203546526E00000140114A516028
:10CFE000117809B108207047012111700E4A0178AB
:10CFF000116041684FF47A72C903B1FBF2F10A4A39
:10D00000083A1160007A0949400181F800044FF0A4
:10D01000E0224FF480310020C2F88012C2F80011E3
:10D02000704700005C2500200C05014010E000E086
:10D030002DE9F04105460078002826D10026144F3E
:10D040004FF0010812E02869805DFCF783FF0400BF
:10D050000BD0112CF7D03988224608EB01400DA1E6
:10D06000FFF7B0FA2046FCF7C1FE761CA88AB04252
:10D07000E9D8A98A2869084410F8010C0D2804D1C0
:10D080000A20FCF767FF1128FAD0BDE8F081000004
:10D090004C2600204661696C656420726563656991
:10D0A00076696E67204E5553206D657373616765B1
:10D0B0002E204572726F7220307825782E20000065
:10D0C00010B550B103280CD10220FDF7E5FD002872
:10D0D00007D0BDE81040FCF789BEBDE8104000F065
:10D0E00051BB10BD0078002807D104483B2180883F
:10D0F00076DF002801D0FCF779BE704708250020B4
:10D10000F0B58BB0002601960D460446898840692B
:10D1100001AAFCF77DFF0AA8CDE908600227ADF857
:10D120002070ADF82260218AA88808AAADDF002807
:10D1300019D1A069002816D00998FDF7D3FC002862
:10D1400011D0019E0EB101203070182102A8FCF709
:10D15000A6F98DF808700394A888ADF8100005961C
:10D16000A16902A888470BB0F0BD000070B5024667
:10D170008888C97B00EB400302EB4304A41D01290E
:10D1800001D11188218021886288914211D9A5DFBF
:10D19000012568B111280DD0FFF72AFE0246064886
:10D1A00006A1008805EB0040BDE87040FFF70ABA11
:10D1B000657170BD257170BD1C26002073645F62AF
:10D1C0006C655F67617474635F65786368616E67DF
:10D1D000655F6D74755F726571756573742829205C
:10D1E00072657475726E65642025732E00000000F0
:10D1F0007CB506468D88C88805EB450106EB4104E1
:10D20000A41D172800D217202188814200D8084683
:10D2100060800020207121882846B5DF50B1FFF7DB
:10D22000E7FD02460E480121008801EB00400DA1F8
:10D23000FFF7C8F96079002810D1F06800280DD0F8
:10D240001449D1E90201CDE90001ADF8025060882E
:10D25000ADF80400F2686946304690477CBD000096
:10D260001C26002073645F626C655F676174747371
:10D270005F65786368616E67655F6D74755F726521
:10D28000706C7928292072657475726E656420252A
:10D29000732E00006CDF0100F0B587B00C46054628
:10D2A0008E1D8988406906AAFCF7B2FE18216846DF
:10D2B000FCF7F5F80195A088069AADF808000392EE
:10D2C00031882B89002704F11200994202D1738919
:10D2D000022B0DD0AA8991421ED1A96900291BD029
:10D2E0008DF8007004907089ADF81400A96911E000
:10D2F000002A11D0FDF7F6FB20B106990120087035
:10D30000022002E00698077003208DF80000A9694A
:10D31000002901D06846884707B0F0BD00680128A1
:10D3200003D0022801D00020704701207047000080
:10D3300010B50C46017A052908D0407A38B1084862
:10D3400008A102682046FEF788FD00E01AB106A198
:10D350002046FEF782FD2046BDE81040FEF78ABD5C
:10D36000F0250020257300000D0A000038B5C388A1
:10D370000D46044633B114A0009015A216A128460C
:10D38000FEF76BFD217A05291CD0607A48B1A08890
:10D39000FEF7DEFF164951F8202016A12846FEF7B9
:10D3A0005CFDA0880021FFF7A9F903461049207A07
:10D3B000143951F8202001B02846BDE830400EA1B4
:10D3C000FEF74BBD38BD00001B5B306D0000000058
:10D3D0001B5B313B33316D0025734C6F67732064E9
:10D3E000726F70706564202825642925730D0A000A
:10D3F000F0250020257300003C25733E2025733A5C
:10D4000020000000034802490068FEF711BB00003D
:10D41000A8250020A8DF01002DE9F041234C0025BC
:10D42000234E207A012730B92248311D0068FEF7CB
:10D430000AFB306038B1022020723168087928B1C7
:10D4400001281ED116E06560BDE8F081D1E9050331
:10D45000C01A4FF48052904200D31046B7EB900FA1
:10D4600001D2820800E001220869C9681844194401
:10D4700029DF03E0D1E90301084428DF58B111286E
:10D4800012D003213068FDF789FE25726560BDE882
:10D49000F041FFF7B7BF207C0028D5D1BDE8F041AF
:10D4A00000210220FEF724BE2772CDE7D02B0020FA
:10D4B000A4250020A8DF010070B5012670044FF0FC
:10D4C000E0210025C1F88001084C4010C4F8480351
:10D4D000C4F8080366602F20FFF7D4FCA660044C54
:10D4E0002F20A560FFF7CEFCA57070BD0010014095
:10D4F0006825002030B58FB005461C216846FBF733
:10D50000CEFF00249DF80000019440F00C008DF83F
:10D510000000039404940594069428788DF836004E
:10D520000220ADF834000C949DF83000142120F056
:10D530000F00401C20F0F00010308DF830009DF8F6
:10D54000310020F00F00401C20F0F00010308DF86A
:10D5500031009DF8320020F00600801C20F01800F9
:10D5600040F001008DF8320007A8FBF798FF0DA8E6
:10D5700007900CA808900120ADF82400F420ADF825
:10D580002640ADF82800688805F10C0307AA694613
:10D59000AADF0FB030BD1FB501238DF800308DF824
:10D5A00008100192D0E90012684690471FBD70B57F
:10D5B0000D460446FCF766FB70B12846FCF774FB89
:10D5C00068B16807000E002C0CDA04F00F0101F1BD
:10D5D000E02181F8140D09E042F2010070BD42F231
:10D5E000020070BD04F1E02484F80004002070BD46
:10D5F00038B50021012548B101280CD0032809D1F4
:10D60000FFF70CFCBDE83840FEF70CBC4FF0E02003
:10D61000C0F8805138BD8DF800106846FCF7BAFCA0
:10D62000064C207808B9FEF7E1FBE068401CE0609A
:10D63000A5709DF80000FCF7D1FC38BD78290020CA
:10D640003EB5044609496846FFF78EFB08E000BF77
:10D65000D0E900212046904730B16846FFF79BFB98
:10D6600002980028F4D13EBD11203EBD40E10100EA
:10D670003EB5044608496846FFF776FB07E000BF61
:10D68000D0E90021204690476846FFF784FB0298C6
:10D690000028F5D13EBD00004CE101000249896936
:10D6A000002900D008477047E42800202DE9F04108
:10D6B0001400884618D000250E4F032608EB0501FC
:10D6C00022460020FCF778F80544241A40B938783F
:10D6D000002809D008494FF47A408847761E05D0C3
:10D6E00001203870002CE9D1BDE8F08100203870AD
:10D6F000FAE70000B425002025E101002DE9F04102
:10D700000746806A14468846C8B3002531E000BF4A
:10D71000B96A05EB450001EB8006B088801CFE2845
:10D7200002D90C20BDE8F0812288401C08F80200D4
:10D7300020881622401C80B2208008F80020208813
:10D74000401C80B2208000EB0801308800F097FA7E
:10D750002188084480B22080B28842B1B16871B19A
:10D760004044FBF783FE2088B188084420806D1C6C
:10D77000EDB297F82C00A842CAD80020D2E7FFE704
:10D780000720CFE710B50020FDF786FA08B1FCF7B7
:10D790002DFBFDF707FA08B1FCF728FB33DF002863
:10D7A00003D0BDE81040FCF721BB10BD002805D117
:10D7B0000349012048700020FDF7C4BB70470000FA
:10D7C0007829002010B51620FCF75CFA48B10A4809
:10D7D00082684FF4800152B1016821F48001016038
:10D7E00010BDBDE8104042F20100FCF7FFBA4FF057
:10D7F000E020C0F8801110BD382B002010B5162095
:10D80000FCF740FA80B10F4890F800044009FCF79B
:10D810004BFA60B10C4882684FF480016AB101682C
:10D8200041F48001016010BD42F2010001E042F2CA
:10D830000200BDE81040FCF7D9BA4FF0E020C0F874
:10D84000001110BD16E000E0382B00202DE9F84F44
:10D85000204D92468946064698460122694618465A
:10D86000AF68FDF705FB58B3009800210446801C03
:10D8700009E000BF00EA07035AF8212005EB830303
:10D88000401C491CDA604145F4D34FEA164AFDF7C3
:10D890005BFC4AEA0041601C384005EB80003C40DC
:10D8A00005EB8402C160D06866F3C50068F3891097
:10D8B00069F39F2020F00300401C20F00400D0609A
:10D8C00095F8200402E000BFFEF768FD0028FBD1B8
:10D8D000BDE8F88FF02C00202DE9F84F1D4C0025F5
:10D8E0006846D4E901A6FDF739FC002738B30023C8
:10D8F000009A61681CE0D1F800C00846944503D93D
:10D90000ACEB02020A6015E0A2EB0C026344076074
:10D91000D0F80CC0C1698146BCF1000F08D006EBFD
:10D92000030828F07F48C0E9018CC9F81C5005465F
:10D930000029E0D128466160FDF78AFD03E0284612
:10D94000FDF786FD10B15046FDF71EFBE770BDE800
:10D95000F88F0000682500200D4B10B5596831B1D3
:10D9600002680C68A24204D8A21A0A60C161586019
:10D9700010BD0B4603E00B46C969121B21B10C68B0
:10D980009442F8D3A41A0C600260C161D86110BD42
:10D99000682500202DE9F041144E77683D462C465D
:10D9A00003E0844204D02546E469002CF9D11BE051
:10D9B000D4B1A5420BD1F869706040B90C4901207F
:10D9C00088600021B160F0702F20FFF75BFA2168BA
:10D9D000E069E86110B10268114401607068874233
:10D9E00002D00120BDE8F0810020FBE7682500207F
:10D9F000001001407CB5064600240D468DF800401D
:10DA00006846FCF7C7FA01A800F0EAF970B10570A2
:10DA1000094946609DF8040048709DF80000FCF735
:10DA2000DDFA1420FBF76CFE20467CBD04249DF833
:10DA30000000FCF7D3FAF7E70C2A00202DE9F041AB
:10DA4000194D6C68002C2CD0184800270068A96874
:10DA5000B846401A20F07F462068B0420CD82146D4
:10DA6000361A0744E469087C20B181F8108088697F
:10DA700049698847002CEFD129786878814206D11E
:10DA8000401CC0B26870022801D185F801800648A8
:10DA900069780C3040F82170BDE8F0411420FBF7A4
:10DAA0002FBEBDE8F081000068250020041501406C
:10DAB00030B58FB00024054607949DF81C001C214A
:10DAC00020F00F00401C20F0F00010308DF81C00FA
:10DAD0009DF81D0020F00F00401C20F0F0001030D9
:10DAE0008DF81D009DF81E0020F00600801C8DF8AA
:10DAF0001E006846FBF7D3FC9DF80000019440F03F
:10DB000010008DF8000007A8CDE9044003940694A6
:10DB100028788DF83A000320ADF838000D949DF870
:10DB20003400142120F00F00401C20F0F0001030D1
:10DB30008DF834009DF8350020F00F00401C20F0D7
:10DB4000F00010308DF835009DF8360020F006000A
:10DB5000801C20F0180040F001008DF8360008A865
:10DB6000FBF79DFC0EA808900DA809900120ADF8C8
:10DB70002800F420ADF82A40ADF82C0068882B1D51
:10DB800008AA6946AADF0FB030BD2DE9FF410C4657
:10DB90004FF4927705463946FFF734F90026C0B1B5
:10DBA00039462846FFF733F902208DF80000D5F8F2
:10DBB0008004C5F880040390D5F83C058DF8080072
:10DBC000E0680190A661E661D4E9001268469047DA
:10DBD00023E04FF4887739462846FFF713F9E0B180
:10DBE00039462846FFF713F9D5F83C15A069884255
:10DBF00013D1E06960B1E268D5F8000220F020009E
:10DC0000C5F80002E069A0612069E661E06001E01A
:10DC1000A661E2682046FFF7BEFC4FF4A2773946C2
:10DC20002846FFF7EFF860B139462846FFF7EFF8CE
:10DC3000A06930B1A661D5F83C152046E268FFF72F
:10DC4000AAFC4FF4907739462846FFF7DBF8002806
:10DC500013D039462846FFF7DAF8606900280CD05F
:10DC6000D5F84C058DF800608DF80800A06801908B
:10DC70006661D4E9001268469047BDE8FF810870EC
:10DC8000000A4870022070472DE9F05F8346DDE905
:10DC90000A4A994690460D460846012703E000BF10
:10DCA000B0FBF8F07F1C4045FAD2B94500D94F4689
:10DCB0005FEACA7012D18CB15FEA8A7002D5B9F1FD
:10DCC000000F01D0202607E0302605E031465846F7
:10DCD000641EFDF715F90CB1A742F7D35FF00106FA
:10DCE000B9F1010F02D9A9F1010903E0B5FBF6F082
:10DCF000404502D306FB08F6F2E7DFF83C9000BF90
:10DD0000B5FBF6F000FB165519F800105846FDF764
:10DD1000F7F8B6FBF8F6002EF2D15FEACA7009D028
:10DD2000002C07D0A74205D220215846641EFDF7DB
:10DD3000E7F8F5E7BDE8F09F96DF0100F8B5054686
:10DD400080B2FDF7BFFA040013D0154E207A0027E9
:10DD5000317B88420ED2A8B204F10A0175DF28B1E6
:10DD6000112806D0BDE8F840FFF798BC207A401C87
:10DD70002072F8BD2772307C38B1A8B23B2176DF23
:10DD800018B1082801D0FFF789FC71690029F0D08B
:10DD90008DF80070ADF8025068468847F8BD000065
:10DDA000E4280020417939B190F8B21021B990F8F7
:10DDB000B40008B1012070470020704730B4044619
:10DDC000007A00280AD06088002166DF28B1112877
:10DDD00002D0616830BC08470120207230BC704717
:10DDE0000A494A788B78521CD2B2934200D1002261
:10DDF0000B78934201D1002070470270487800EB05
:10DE0000400001EBC000001D704700000C2A0020FC
:10DE10002DE9FC411646DDE90854CDE900541F46C2
:10DE20008046022200F00CF8002807D1CDE900540A
:10DE30003B4610223146404600F002F8BDE8FC8126
:10DE40002DE9FC5F0026DDE90C4B994692468E4693
:10DE500080462788354630E0D8F80400002200EBE1
:10DE6000850069460068019001A864DF002830D170
:10DE70009DF8000050451FD10EB1002100E00221A5
:10DE8000228808441118594522D846B9521C90B22C
:10DE9000208009F800E02088401C2080012621888D
:10DEA00001A801EB0902694664DF002811D120882E
:10DEB0009DF80010084420806D1CB8F80000A842AE
:10DEC000CADC56B12088C01B401E80B2FF2802D990
:10DED0000C20BDE8FC9F09F807000020F9E710B509
:10DEE000042817D209B1032400E00024FCF7FEFD4A
:10DEF0004FF0A04101EB8000D0F8001721F4403131
:10DF0000C0F80017D0F8001741EA0441C0F8001724
:10DF1000002010BD062010BD704770475C26002011
:10DF200001000000D0070000070000000100000011
:10DF3000D007000007000000111213140D0E0F107F
:10DF40004428002064280020902800200D000300B1
:10DF5000C5AB01000E000300C5AB01000F000300BC
:10DF6000C5AB010010000300C5AB0100770A00003B
:10DF700000000000770A0000000000009ECADC24B8
:10DF80000EE5A9E093F3A3B50000406E0000005039
:10DF90000738FDD8704730313233343536373839A9
:10DFA00041424344454600009025002000100000F7
:10DFB000040000000100000000000000000000005C
:10DFC0000000000000000000000000000000000051
:10DFD000B8DF0100D0DF010004000000556E6B6E59
:10DFE0006F776E206572726F7220636F64650000D8
:10DFF00000000000D0E50100010000007CE4010009
:10E000000200000070E2010003000000F0E40100E3
:10E010000400000044E501000500000024E40100C4
:10E0200006000000C0E30100070000002CE501002D
:10E030000800000038E40100090000009CE4010031
:10E040000A000000B8E501000B00000058E20100E2
:10E050000C00000050E401000D00000020E601006B
:10E060000E0000001CE501000F00000058E5010053
:10E07000100000008CE501001100000034E60100F2
:10E080001200000008E6010013000000A4E50100F2
:10E0900080000000D8E301008100000014E30100CB
:10E0A00082000000D4E2010083000000B4E201001D
:10E0B00084000000F0E2010085000000FCE30100A4
:10E0C0008600000004E5010090000000A0E30100CC
:10E0D0009100000094E201009200000064E401005D
:10E0E000008200006CE5010001820000B8E401003C
:10E0F00002820000D4E401000084000030E301004B
:10E1000001840000DCE501000284000078E30100E6
:10E110000384000054E3010071C201006FC20100DA
:10E1200069C201000738FDD87047000018EA0100F5
:10E1300020EA0100000000000000000001000007CC
:10E140002CE101003CE101000800000064E1010055
:10E1500074E101000800000074E1010084E10100A5
:10E160000800000048EA010058EA01000000000031
:10E170000000000038EA010048EA01000000000049
:10E1800000000000D8E90100E0E90100E0E9010039
:10E1900000EA010000EA010010EA010010EA0100B3
:10E1A00018EA01000025002084E10100A4E101003B
:10E1B0000800000020EA010030EA010030EA010016
:10E1C00038EA0100B4E10100C4E1010008000000E8
:10E1D000004040404040404040404141414141407A
:10E1E000404040404040404040404040404040402F
:10E1F00040050202020202020202020202020202BE
:10E2000002202020202020202020200202020202C2
:10E21000020290909090909010101010101010101A
:10E220001010101010101010101010100202020226
:10E23000020288888888888808080808080808086A
:10E240000808080808080808080808080202020266
:10E2500040000000D1E101004E52465F4552524F4E
:10E26000525F494E56414C49445F4441544100007D
:10E270004E52465F4552524F525F534F46544445AB
:10E28000564943455F4E4F545F454E41424C4544CD
:10E29000000000004E52465F4552524F525F4645C5
:10E2A00041545552455F4E4F545F454E41424C4597
:10E2B000440000004E52465F4552524F525F4D554A
:10E2C0005445585F554E4C4F434B5F4641494C4572
:10E2D000440000004E52465F4552524F525F4D552A
:10E2E0005445585F4C4F434B5F4641494C454400B1
:10E2F0004E52465F4552524F525F4D555445585FFE
:10E30000434F4E445F494E49545F4641494C454452
:10E31000000000004E52465F4552524F525F4D552D
:10E320005445585F494E49545F4641494C45440065
:10E330004E52465F4552524F525F424C455F4950E4
:10E3400053505F52585F504B545F5452554E4341A7
:10E35000544544004E52465F4552524F525F424C24
:10E36000455F495053505F504545525F52454A45BD
:10E3700043544544000000004E52465F4552524F00
:10E38000525F424C455F495053505F4C494E4B5F82
:10E39000444953434F4E4E4543544544000000000A
:10E3A0004E52465F4552524F525F4150495F4E4F69
:10E3B000545F494D504C454D454E54454400000076
:10E3C0004E52465F4552524F525F4E4F545F535527
:10E3D00050504F52544544004E52465F4552524FA2
:10E3E000525F4D4F44554C455F4E4F545F494E4927
:10E3F0005449414C495A4544000000004E52465F82
:10E400004552524F525F4D4F44554C455F414C521F
:10E41000454144595F494E495449414C495A454444
:10E42000000000004E52465F4552524F525F4E4F21
:10E43000545F464F554E44004E52465F4552524F30
:10E44000525F494E56414C49445F53544154450034
:10E450004E52465F4552524F525F444154415F53C2
:10E46000495A45004E52465F4552524F525F494FFE
:10E470005F50454E44494E47000000004E52465FF3
:10E480004552524F525F5356435F48414E444C45AC
:10E49000525F4D495353494E470000004E52465F6C
:10E4A0004552524F525F494E56414C49445F4C458C
:10E4B0004E475448000000004E52465F4552524FAE
:10E4C000525F4452565F5457495F4552525F414E26
:10E4D00041434B004E52465F4552524F525F4452A9
:10E4E000565F5457495F4552525F444E41434B007B
:10E4F0004E52465F4552524F525F494E5445524E1E
:10E50000414C00004E52465F4552524F525F5354A9
:10E510004F524147455F46554C4C00004E52465FB6
:10E520004552524F525F4E554C4C00004E52465F82
:10E530004552524F525F494E56414C49445F5041FB
:10E5400052414D004E52465F4552524F525F4E4F20
:10E550005F4D454D000000004E52465F4552524F00
:10E56000525F464F5242494444454E004E52465F28
:10E570004552524F525F4452565F5457495F45527D
:10E58000525F4F56455252554E0000004E52465F64
:10E590004552524F525F494E56414C49445F4144A7
:10E5A000445200004E52465F4552524F525F524510
:10E5B000534F5552434553004E52465F4552524FBA
:10E5C000525F494E56414C49445F464C41475300C7
:10E5D0004E52465F53554343455353004E52465F98
:10E5E0004552524F525F424C455F495053505F4332
:10E5F00048414E4E454C5F414C52454144595F4560
:10E6000058495354530000004E52465F4552524FF2
:10E61000525F434F4E4E5F434F554E540000000033
:10E620004E52465F4552524F525F54494D454F55E9
:10E63000540000004E52465F4552524F525F4255C1
:10E64000535900007761726E696E67006465627588
:10E65000670000001B5B313B33306D001B5B306D8E
:10E66000000000001B5B313B33316D001B5B313B15
:10E6700033326D001B5B313B33336D001B5B313B31
:10E6800033346D001B5B313B33356D001B5B313B1D
:10E6900033366D001B5B313B33376D00696E666F3F
:10E6A000000000006572726F7200000073645F62A8
:10E6B0006C655F6366675F73657428292072657493
:10E6C00075726E6564202573207768656E206174AD
:10E6D00074656D7074696E6720746F207365742043
:10E6E000424C455F47415454535F4346475F53454F
:10E6F00052564943455F4348414E4745442E00002A
:10E7000073645F626C655F6366675F736574282915
:10E710002072657475726E65642025732077686554
:10E720006E20617474656D7074696E6720746F20FB
:10E7300073657420424C455F434F4D4D4F4E5F43D0
:10E7400046475F56535F555549442E0073645F62D8
:10E750006C655F6366675F736574282920726574F2
:10E7600075726E6564202573207768656E2061740C
:10E7700074656D7074696E6720746F2073657420A2
:10E78000424C455F47415454535F4346475F4154B1
:10E7900054525F5441425F53495A452E00000000D5
:10E7A00073645F626C655F6366675F736574282975
:10E7B0002072657475726E656420257320776865B4
:10E7C0006E20617474656D7074696E6720746F205B
:10E7D00073657420424C455F434F4E4E5F4346473E
:10E7E0005F4741502E00000073645F626C655F6399
:10E7F00066675F73657428292072657475726E652B
:10E8000064202573207768656E20617474656D706F
:10E8100074696E6720746F2073657420424C455F85
:10E820004741505F4346475F524F4C455F434F550A
:10E830004E542E0073645F626C655F6366675F733E
:10E84000657428292072657475726E65642025735D
:10E85000207768656E20617474656D7074696E6789
:10E8600020746F2073657420424C455F434F4E4EB9
:10E870005F4346475F474154542E00006E72665F07
:10E88000626C655F6761747400000000626C655FB4
:10E890006E757300636C6F636B000000434C4F43F5
:10E8A0004B0000004750494F544500005052530060
:10E8B0005541525445000000574454006E72665F43
:10E8C0006673746F72616765000000006174666949
:10E8D000666F2E6D5F6669666F0000007077725F0D
:10E8E0006D676D740000000062616C6C6F632E6C6C
:10E8F0006F675F6D656D706F6F6C000061707000A9
:10E900006E72665F736468006E72665F7364685FE0
:10E91000626C65006E72665F7364685F736F63003C
:10E9200058EA0100002500205C0100001895010054
:10E93000ACEA01005C26002044150000769C010032
:10E940007CE80100000003038CE8010000000000E7
:10E9500094E80100000000009CE8010000000000B5
:10E96000A4E8010000000000ACE801000000000085
:10E97000B0E8010000000000B8E80100000000005D
:10E98000BCE8010000000303CCE801000000000324
:10E99000DCE8010000000000E8E8010000000003DE
:10E9A000FCE801000000030300E90100000003038C
:10E9B00008E901000000030314E90100000003035B
:10E9C000CC250020C4250020CC250020302C0020A0
:10E9D000482600201800000019A9010000000000CE
:10E9E000F1BB01007027002033A301008C27002019
:10E9F000ADA70100000000001DA8010000000000FC
:10EA000075AA01001425002017BD010080270020F1
:10EA1000DDA6010000000000B9C0010000000000F8
:10EA2000ADD7010000000000F1C0010000000000AF
:10EA30009DA301008C2700209DCB01000000000059
:10EA40002DCD010000000000F1D501000000000004
:10EA5000D1C0010000000000133025132001520432
:10EA600014FFFF1412010216021928015D12200280
:10EA700014400B14402678042518E10114A4E60183
:10EA80001A44041A9C041A4C041A5C041A54041AFA
:10EA900064041A6C041A74041A7C041A84041A8C10
:0CEAA000041A940451044090D0030000BC
:040000050001920163
:00000001FF
